{
  "contractName": "Amazon",
  "abi": [
    {
      "inputs": [],
      "stateMutability": "nonpayable",
      "type": "constructor"
    },
    {
      "anonymous": false,
      "inputs": [
        {
          "indexed": true,
          "internalType": "uint256",
          "name": "itemId",
          "type": "uint256"
        }
      ],
      "name": "ItemDeleted",
      "type": "event"
    },
    {
      "anonymous": false,
      "inputs": [
        {
          "indexed": true,
          "internalType": "uint256",
          "name": "itemId",
          "type": "uint256"
        },
        {
          "indexed": false,
          "internalType": "string",
          "name": "name",
          "type": "string"
        },
        {
          "indexed": false,
          "internalType": "string",
          "name": "imageUrl",
          "type": "string"
        },
        {
          "indexed": false,
          "internalType": "uint256",
          "name": "cost",
          "type": "uint256"
        },
        {
          "indexed": false,
          "internalType": "uint256",
          "name": "stock",
          "type": "uint256"
        },
        {
          "indexed": true,
          "internalType": "address",
          "name": "seller",
          "type": "address"
        },
        {
          "indexed": false,
          "internalType": "string",
          "name": "manufacturer",
          "type": "string"
        },
        {
          "indexed": false,
          "internalType": "string",
          "name": "dimensions",
          "type": "string"
        },
        {
          "indexed": false,
          "internalType": "uint256",
          "name": "weight",
          "type": "uint256"
        }
      ],
      "name": "ItemListed",
      "type": "event"
    },
    {
      "anonymous": false,
      "inputs": [
        {
          "indexed": true,
          "internalType": "uint256",
          "name": "itemId",
          "type": "uint256"
        },
        {
          "indexed": false,
          "internalType": "uint256",
          "name": "quantity",
          "type": "uint256"
        },
        {
          "indexed": true,
          "internalType": "address",
          "name": "buyer",
          "type": "address"
        }
      ],
      "name": "ItemPurchased",
      "type": "event"
    },
    {
      "anonymous": false,
      "inputs": [
        {
          "indexed": true,
          "internalType": "address",
          "name": "seller",
          "type": "address"
        }
      ],
      "name": "SellerAdded",
      "type": "event"
    },
    {
      "anonymous": false,
      "inputs": [
        {
          "indexed": true,
          "internalType": "address",
          "name": "seller",
          "type": "address"
        }
      ],
      "name": "SellerRemoved",
      "type": "event"
    },
    {
      "anonymous": false,
      "inputs": [
        {
          "indexed": false,
          "internalType": "string",
          "name": "name",
          "type": "string"
        },
        {
          "indexed": false,
          "internalType": "string",
          "name": "street",
          "type": "string"
        },
        {
          "indexed": false,
          "internalType": "string",
          "name": "city",
          "type": "string"
        },
        {
          "indexed": false,
          "internalType": "string",
          "name": "postalCode",
          "type": "string"
        },
        {
          "indexed": false,
          "internalType": "string",
          "name": "country",
          "type": "string"
        },
        {
          "indexed": true,
          "internalType": "address",
          "name": "user",
          "type": "address"
        }
      ],
      "name": "ShippingInfoUpdated",
      "type": "event"
    },
    {
      "inputs": [
        {
          "internalType": "address",
          "name": "",
          "type": "address"
        }
      ],
      "name": "isSeller",
      "outputs": [
        {
          "internalType": "bool",
          "name": "",
          "type": "bool"
        }
      ],
      "stateMutability": "view",
      "type": "function",
      "constant": true
    },
    {
      "inputs": [],
      "name": "itemCount",
      "outputs": [
        {
          "internalType": "uint256",
          "name": "",
          "type": "uint256"
        }
      ],
      "stateMutability": "view",
      "type": "function",
      "constant": true
    },
    {
      "inputs": [
        {
          "internalType": "uint256",
          "name": "",
          "type": "uint256"
        }
      ],
      "name": "items",
      "outputs": [
        {
          "internalType": "uint256",
          "name": "id",
          "type": "uint256"
        },
        {
          "internalType": "string",
          "name": "name",
          "type": "string"
        },
        {
          "internalType": "string",
          "name": "category",
          "type": "string"
        },
        {
          "internalType": "string",
          "name": "imageUrl",
          "type": "string"
        },
        {
          "internalType": "uint256",
          "name": "cost",
          "type": "uint256"
        },
        {
          "internalType": "uint256",
          "name": "stock",
          "type": "uint256"
        },
        {
          "internalType": "address payable",
          "name": "seller",
          "type": "address"
        },
        {
          "internalType": "string",
          "name": "manufacturer",
          "type": "string"
        },
        {
          "internalType": "string",
          "name": "dimensions",
          "type": "string"
        },
        {
          "internalType": "uint256",
          "name": "weight",
          "type": "uint256"
        }
      ],
      "stateMutability": "view",
      "type": "function",
      "constant": true
    },
    {
      "inputs": [],
      "name": "owner",
      "outputs": [
        {
          "internalType": "address",
          "name": "",
          "type": "address"
        }
      ],
      "stateMutability": "view",
      "type": "function",
      "constant": true
    },
    {
      "inputs": [
        {
          "internalType": "address",
          "name": "",
          "type": "address"
        }
      ],
      "name": "shippingInfo",
      "outputs": [
        {
          "internalType": "string",
          "name": "name",
          "type": "string"
        },
        {
          "internalType": "string",
          "name": "street",
          "type": "string"
        },
        {
          "internalType": "string",
          "name": "city",
          "type": "string"
        },
        {
          "internalType": "string",
          "name": "postalCode",
          "type": "string"
        },
        {
          "internalType": "string",
          "name": "country",
          "type": "string"
        }
      ],
      "stateMutability": "view",
      "type": "function",
      "constant": true
    },
    {
      "inputs": [
        {
          "internalType": "address",
          "name": "_seller",
          "type": "address"
        }
      ],
      "name": "addSeller",
      "outputs": [],
      "stateMutability": "nonpayable",
      "type": "function"
    },
    {
      "inputs": [
        {
          "internalType": "address",
          "name": "_seller",
          "type": "address"
        }
      ],
      "name": "removeSeller",
      "outputs": [],
      "stateMutability": "nonpayable",
      "type": "function"
    },
    {
      "inputs": [
        {
          "internalType": "string",
          "name": "_name",
          "type": "string"
        },
        {
          "internalType": "string",
          "name": "_category",
          "type": "string"
        },
        {
          "internalType": "string",
          "name": "_imageUrl",
          "type": "string"
        },
        {
          "internalType": "uint256",
          "name": "_costWei",
          "type": "uint256"
        },
        {
          "internalType": "uint256",
          "name": "_stock",
          "type": "uint256"
        },
        {
          "internalType": "string",
          "name": "_manufacturer",
          "type": "string"
        },
        {
          "internalType": "string",
          "name": "_dimensions",
          "type": "string"
        },
        {
          "internalType": "uint256",
          "name": "_weight",
          "type": "uint256"
        }
      ],
      "name": "list",
      "outputs": [],
      "stateMutability": "nonpayable",
      "type": "function"
    },
    {
      "inputs": [
        {
          "internalType": "uint256",
          "name": "_id",
          "type": "uint256"
        },
        {
          "internalType": "uint256",
          "name": "_quantity",
          "type": "uint256"
        }
      ],
      "name": "buy",
      "outputs": [],
      "stateMutability": "payable",
      "type": "function",
      "payable": true
    },
    {
      "inputs": [
        {
          "internalType": "string",
          "name": "_name",
          "type": "string"
        },
        {
          "internalType": "string",
          "name": "_street",
          "type": "string"
        },
        {
          "internalType": "string",
          "name": "_city",
          "type": "string"
        },
        {
          "internalType": "string",
          "name": "_postalCode",
          "type": "string"
        },
        {
          "internalType": "string",
          "name": "_country",
          "type": "string"
        }
      ],
      "name": "setShippingInfo",
      "outputs": [],
      "stateMutability": "nonpayable",
      "type": "function"
    },
    {
      "inputs": [
        {
          "internalType": "address",
          "name": "_user",
          "type": "address"
        }
      ],
      "name": "getShippingInfo",
      "outputs": [
        {
          "components": [
            {
              "internalType": "string",
              "name": "name",
              "type": "string"
            },
            {
              "internalType": "string",
              "name": "street",
              "type": "string"
            },
            {
              "internalType": "string",
              "name": "city",
              "type": "string"
            },
            {
              "internalType": "string",
              "name": "postalCode",
              "type": "string"
            },
            {
              "internalType": "string",
              "name": "country",
              "type": "string"
            }
          ],
          "internalType": "struct Amazon.ShippingInfo",
          "name": "",
          "type": "tuple"
        }
      ],
      "stateMutability": "view",
      "type": "function",
      "constant": true
    },
    {
      "inputs": [],
      "name": "withdraw",
      "outputs": [],
      "stateMutability": "nonpayable",
      "type": "function"
    },
    {
      "inputs": [
        {
          "internalType": "uint256",
          "name": "itemId",
          "type": "uint256"
        }
      ],
      "name": "deleteItem",
      "outputs": [],
      "stateMutability": "nonpayable",
      "type": "function"
    }
  ],
  "bytecode": "0x60806040526001805534801561001457600080fd5b50336000806101000a81548173ffffffffffffffffffffffffffffffffffffffff021916908373ffffffffffffffffffffffffffffffffffffffff1602179055506001600360008060009054906101000a900473ffffffffffffffffffffffffffffffffffffffff1673ffffffffffffffffffffffffffffffffffffffff1673ffffffffffffffffffffffffffffffffffffffff16815260200190815260200160002060006101000a81548160ff0219169083151502179055506126e8806100dd6000396000f3fe6080604052600436106100c25760003560e01c8063ba01a8f71161007f578063d93fabfa11610059578063d93fabfa1461024e578063ee95feaf14610277578063f17cfe4e146102b4578063fcfb88ca146102f5576100c2565b8063ba01a8f7146101af578063bfb231d2146101ec578063d6febde814610232576100c2565b806311e93b8d146100c75780633ccfd60b146100f0578063654fc833146101075780636bfb0d01146101305780637cb9cf541461015b5780638da5cb5b14610184575b600080fd5b3480156100d357600080fd5b506100ee60048036038101906100e99190611b3f565b61031e565b005b3480156100fc57600080fd5b506101056105a1565b005b34801561011357600080fd5b5061012e60048036038101906101299190611c69565b6106e1565b005b34801561013c57600080fd5b50610145610946565b60405161015291906122d9565b60405180910390f35b34801561016757600080fd5b50610182600480360381019061017d9190611a27565b61094c565b005b34801561019057600080fd5b50610199610a78565b6040516101a69190612080565b60405180910390f35b3480156101bb57600080fd5b506101d660048036038101906101d19190611a27565b610a9c565b6040516101e391906122b7565b60405180910390f35b3480156101f857600080fd5b50610213600480360381019061020e9190611c69565b610dcf565b6040516102299a999897969594939291906122f4565b60405180910390f35b61024c60048036038101906102479190611c92565b6110eb565b005b34801561025a57600080fd5b5061027560048036038101906102709190611a27565b611302565b005b34801561028357600080fd5b5061029e60048036038101906102999190611a27565b61142e565b6040516102ab919061209b565b60405180910390f35b3480156102c057600080fd5b506102db60048036038101906102d69190611a27565b61144e565b6040516102ec9594939291906120b6565b60405180910390f35b34801561030157600080fd5b5061031c60048036038101906103179190611a50565b61172c565b005b600360003373ffffffffffffffffffffffffffffffffffffffff1673ffffffffffffffffffffffffffffffffffffffff16815260200190815260200160002060009054906101000a900460ff166103aa576040517f08c379a00000000000000000000000000000000000000000000000000000000081526004016103a190612237565b60405180910390fd5b60405180610140016040528060015481526020018981526020018881526020018781526020018681526020018581526020013373ffffffffffffffffffffffffffffffffffffffff16815260200184815260200183815260200182815250600260006001548152602001908152602001600020600082015181600001556020820151816001019080519060200190610443929190611883565b506040820151816002019080519060200190610460929190611883565b50606082015181600301908051906020019061047d929190611883565b506080820151816004015560a0820151816005015560c08201518160060160006101000a81548173ffffffffffffffffffffffffffffffffffffffff021916908373ffffffffffffffffffffffffffffffffffffffff16021790555060e08201518160070190805190602001906104f5929190611883565b50610100820151816008019080519060200190610513929190611883565b5061012082015181600901559050503373ffffffffffffffffffffffffffffffffffffffff166001547f11ff6d79e73ca42d7cbd99f11d30cfeefd1e106c48e9d1350708991f640a32db8a898989898989604051610577979695949392919061212c565b60405180910390a3600160008154809291906105929061259d565b91905055505050505050505050565b60008054906101000a900473ffffffffffffffffffffffffffffffffffffffff1673ffffffffffffffffffffffffffffffffffffffff163373ffffffffffffffffffffffffffffffffffffffff161461062f576040517f08c379a000000000000000000000000000000000000000000000000000000000815260040161062690612257565b60405180910390fd5b600047905060008111610677576040517f08c379a000000000000000000000000000000000000000000000000000000000815260040161066e906121d7565b60405180910390fd5b60008054906101000a900473ffffffffffffffffffffffffffffffffffffffff1673ffffffffffffffffffffffffffffffffffffffff166108fc829081150290604051600060405180830381858888f193505050501580156106dd573d6000803e3d6000fd5b5050565b60008054906101000a900473ffffffffffffffffffffffffffffffffffffffff1673ffffffffffffffffffffffffffffffffffffffff163373ffffffffffffffffffffffffffffffffffffffff161461076f576040517f08c379a000000000000000000000000000000000000000000000000000000000815260040161076690612257565b60405180910390fd5b3373ffffffffffffffffffffffffffffffffffffffff166002600083815260200190815260200160002060060160009054906101000a900473ffffffffffffffffffffffffffffffffffffffff1673ffffffffffffffffffffffffffffffffffffffff16148061082a575060008054906101000a900473ffffffffffffffffffffffffffffffffffffffff1673ffffffffffffffffffffffffffffffffffffffff163373ffffffffffffffffffffffffffffffffffffffff16145b610869576040517f08c379a000000000000000000000000000000000000000000000000000000000815260040161086090612217565b60405180910390fd5b600260008281526020019081526020016000206000808201600090556001820160006108959190611909565b6002820160006108a59190611909565b6003820160006108b59190611909565b600482016000905560058201600090556006820160006101000a81549073ffffffffffffffffffffffffffffffffffffffff02191690556007820160006108fc9190611909565b60088201600061090c9190611909565b60098201600090555050807f3d0be3a3bbdb36b253d40a546d15d6b7f402fc43e4cd4a067af359b0763b6f3c60405160405180910390a250565b60015481565b60008054906101000a900473ffffffffffffffffffffffffffffffffffffffff1673ffffffffffffffffffffffffffffffffffffffff163373ffffffffffffffffffffffffffffffffffffffff16146109da576040517f08c379a00000000000000000000000000000000000000000000000000000000081526004016109d190612257565b60405180910390fd5b6000600360008373ffffffffffffffffffffffffffffffffffffffff1673ffffffffffffffffffffffffffffffffffffffff16815260200190815260200160002060006101000a81548160ff0219169083151502179055508073ffffffffffffffffffffffffffffffffffffffff167fa6f3b3030df964d974376ba4db21cbe49207bd79998f0d619c1c3a422259707f60405160405180910390a250565b60008054906101000a900473ffffffffffffffffffffffffffffffffffffffff1681565b610aa4611949565b600460008373ffffffffffffffffffffffffffffffffffffffff1673ffffffffffffffffffffffffffffffffffffffff1681526020019081526020016000206040518060a0016040529081600082018054610afe9061256b565b80601f0160208091040260200160405190810160405280929190818152602001828054610b2a9061256b565b8015610b775780601f10610b4c57610100808354040283529160200191610b77565b820191906000526020600020905b815481529060010190602001808311610b5a57829003601f168201915b50505050508152602001600182018054610b909061256b565b80601f0160208091040260200160405190810160405280929190818152602001828054610bbc9061256b565b8015610c095780601f10610bde57610100808354040283529160200191610c09565b820191906000526020600020905b815481529060010190602001808311610bec57829003601f168201915b50505050508152602001600282018054610c229061256b565b80601f0160208091040260200160405190810160405280929190818152602001828054610c4e9061256b565b8015610c9b5780601f10610c7057610100808354040283529160200191610c9b565b820191906000526020600020905b815481529060010190602001808311610c7e57829003601f168201915b50505050508152602001600382018054610cb49061256b565b80601f0160208091040260200160405190810160405280929190818152602001828054610ce09061256b565b8015610d2d5780601f10610d0257610100808354040283529160200191610d2d565b820191906000526020600020905b815481529060010190602001808311610d1057829003601f168201915b50505050508152602001600482018054610d469061256b565b80601f0160208091040260200160405190810160405280929190818152602001828054610d729061256b565b8015610dbf5780601f10610d9457610100808354040283529160200191610dbf565b820191906000526020600020905b815481529060010190602001808311610da257829003601f168201915b5050505050815250509050919050565b6002602052806000526040600020600091509050806000015490806001018054610df89061256b565b80601f0160208091040260200160405190810160405280929190818152602001828054610e249061256b565b8015610e715780601f10610e4657610100808354040283529160200191610e71565b820191906000526020600020905b815481529060010190602001808311610e5457829003601f168201915b505050505090806002018054610e869061256b565b80601f0160208091040260200160405190810160405280929190818152602001828054610eb29061256b565b8015610eff5780601f10610ed457610100808354040283529160200191610eff565b820191906000526020600020905b815481529060010190602001808311610ee257829003601f168201915b505050505090806003018054610f149061256b565b80601f0160208091040260200160405190810160405280929190818152602001828054610f409061256b565b8015610f8d5780601f10610f6257610100808354040283529160200191610f8d565b820191906000526020600020905b815481529060010190602001808311610f7057829003601f168201915b5050505050908060040154908060050154908060060160009054906101000a900473ffffffffffffffffffffffffffffffffffffffff1690806007018054610fd49061256b565b80601f01602080910402602001604051908101604052809291908181526020018280546110009061256b565b801561104d5780601f106110225761010080835404028352916020019161104d565b820191906000526020600020905b81548152906001019060200180831161103057829003601f168201915b5050505050908060080180546110629061256b565b80601f016020809104026020016040519081016040528092919081815260200182805461108e9061256b565b80156110db5780601f106110b0576101008083540402835291602001916110db565b820191906000526020600020905b8154815290600101906020018083116110be57829003601f168201915b505050505090806009015490508a565b600154821061112f576040517f08c379a000000000000000000000000000000000000000000000000000000000815260040161112690612277565b60405180910390fd5b60008111611172576040517f08c379a0000000000000000000000000000000000000000000000000000000008152600401611169906121b7565b60405180910390fd5b6000600260008481526020019081526020016000209050600082826004015461119b9190612441565b9050803410156111e0576040517f08c379a00000000000000000000000000000000000000000000000000000000081526004016111d790612297565b60405180910390fd5b8282600501541015611227576040517f08c379a000000000000000000000000000000000000000000000000000000000815260040161121e906121f7565b60405180910390fd5b8282600501600082825461123b919061249b565b925050819055508160060160009054906101000a900473ffffffffffffffffffffffffffffffffffffffff1673ffffffffffffffffffffffffffffffffffffffff166108fc349081150290604051600060405180830381858888f193505050501580156112ac573d6000803e3d6000fd5b503373ffffffffffffffffffffffffffffffffffffffff16847f5893bbc031bddbc390b0c4a6c4bf73910dc7aed83f441f568c51c492eaa67c4a856040516112f491906122d9565b60405180910390a350505050565b60008054906101000a900473ffffffffffffffffffffffffffffffffffffffff1673ffffffffffffffffffffffffffffffffffffffff163373ffffffffffffffffffffffffffffffffffffffff1614611390576040517f08c379a000000000000000000000000000000000000000000000000000000000815260040161138790612257565b60405180910390fd5b6001600360008373ffffffffffffffffffffffffffffffffffffffff1673ffffffffffffffffffffffffffffffffffffffff16815260200190815260200160002060006101000a81548160ff0219169083151502179055508073ffffffffffffffffffffffffffffffffffffffff167f3d78526f2568d430fd8e20719601f7bc3f979936f8880236cc284e8127251b4260405160405180910390a250565b60036020528060005260406000206000915054906101000a900460ff1681565b60046020528060005260406000206000915090508060000180546114719061256b565b80601f016020809104026020016040519081016040528092919081815260200182805461149d9061256b565b80156114ea5780601f106114bf576101008083540402835291602001916114ea565b820191906000526020600020905b8154815290600101906020018083116114cd57829003601f168201915b5050505050908060010180546114ff9061256b565b80601f016020809104026020016040519081016040528092919081815260200182805461152b9061256b565b80156115785780601f1061154d57610100808354040283529160200191611578565b820191906000526020600020905b81548152906001019060200180831161155b57829003601f168201915b50505050509080600201805461158d9061256b565b80601f01602080910402602001604051908101604052809291908181526020018280546115b99061256b565b80156116065780601f106115db57610100808354040283529160200191611606565b820191906000526020600020905b8154815290600101906020018083116115e957829003601f168201915b50505050509080600301805461161b9061256b565b80601f01602080910402602001604051908101604052809291908181526020018280546116479061256b565b80156116945780601f1061166957610100808354040283529160200191611694565b820191906000526020600020905b81548152906001019060200180831161167757829003601f168201915b5050505050908060040180546116a99061256b565b80601f01602080910402602001604051908101604052809291908181526020018280546116d59061256b565b80156117225780601f106116f757610100808354040283529160200191611722565b820191906000526020600020905b81548152906001019060200180831161170557829003601f168201915b5050505050905085565b6040518060a0016040528086815260200185815260200184815260200183815260200182815250600460003373ffffffffffffffffffffffffffffffffffffffff1673ffffffffffffffffffffffffffffffffffffffff16815260200190815260200160002060008201518160000190805190602001906117ae929190611883565b5060208201518160010190805190602001906117cb929190611883565b5060408201518160020190805190602001906117e8929190611883565b506060820151816003019080519060200190611805929190611883565b506080820151816004019080519060200190611822929190611883565b509050503373ffffffffffffffffffffffffffffffffffffffff167fbc776c400a9deb1fbcc5526fb3febaae01f0993971a2822617569a73659a940a86868686866040516118749594939291906120b6565b60405180910390a25050505050565b82805461188f9061256b565b90600052602060002090601f0160209004810192826118b157600085556118f8565b82601f106118ca57805160ff19168380011785556118f8565b828001600101855582156118f8579182015b828111156118f75782518255916020019190600101906118dc565b5b5090506119059190611978565b5090565b5080546119159061256b565b6000825580601f106119275750611946565b601f0160209004906000526020600020908101906119459190611978565b5b50565b6040518060a0016040528060608152602001606081526020016060815260200160608152602001606081525090565b5b80821115611991576000816000905550600101611979565b5090565b60006119a86119a3846123e4565b6123b3565b9050828152602081018484840111156119c057600080fd5b6119cb848285612529565b509392505050565b6000813590506119e281612684565b92915050565b600082601f8301126119f957600080fd5b8135611a09848260208601611995565b91505092915050565b600081359050611a218161269b565b92915050565b600060208284031215611a3957600080fd5b6000611a47848285016119d3565b91505092915050565b600080600080600060a08688031215611a6857600080fd5b600086013567ffffffffffffffff811115611a8257600080fd5b611a8e888289016119e8565b955050602086013567ffffffffffffffff811115611aab57600080fd5b611ab7888289016119e8565b945050604086013567ffffffffffffffff811115611ad457600080fd5b611ae0888289016119e8565b935050606086013567ffffffffffffffff811115611afd57600080fd5b611b09888289016119e8565b925050608086013567ffffffffffffffff811115611b2657600080fd5b611b32888289016119e8565b9150509295509295909350565b600080600080600080600080610100898b031215611b5c57600080fd5b600089013567ffffffffffffffff811115611b7657600080fd5b611b828b828c016119e8565b985050602089013567ffffffffffffffff811115611b9f57600080fd5b611bab8b828c016119e8565b975050604089013567ffffffffffffffff811115611bc857600080fd5b611bd48b828c016119e8565b9650506060611be58b828c01611a12565b9550506080611bf68b828c01611a12565b94505060a089013567ffffffffffffffff811115611c1357600080fd5b611c1f8b828c016119e8565b93505060c089013567ffffffffffffffff811115611c3c57600080fd5b611c488b828c016119e8565b92505060e0611c598b828c01611a12565b9150509295985092959890939650565b600060208284031215611c7b57600080fd5b6000611c8984828501611a12565b91505092915050565b60008060408385031215611ca557600080fd5b6000611cb385828601611a12565b9250506020611cc485828601611a12565b9150509250929050565b611cd7816124e1565b82525050565b611ce6816124cf565b82525050565b611cf5816124f3565b82525050565b6000611d0682612414565b611d10818561241f565b9350611d20818560208601612538565b611d2981612673565b840191505092915050565b6000611d3f82612414565b611d498185612430565b9350611d59818560208601612538565b611d6281612673565b840191505092915050565b6000611d7a602383612430565b91507f5175616e74697479206d7573742062652067726561746572207468616e207a6560008301527f726f2e00000000000000000000000000000000000000000000000000000000006020830152604082019050919050565b6000611de0600d83612430565b91507f42616c616e636520697320302e000000000000000000000000000000000000006000830152602082019050919050565b6000611e20601a83612430565b91507f4e6f7420656e6f756768206974656d7320696e2073746f636b2e0000000000006000830152602082019050919050565b6000611e60600d83612430565b91507f556e617574686f72697a65642e000000000000000000000000000000000000006000830152602082019050919050565b6000611ea0602e83612430565b91507f4f6e6c7920617070726f7665642073656c6c6572732063616e20706572666f7260008301527f6d207468697320616374696f6e2e0000000000000000000000000000000000006020830152604082019050919050565b6000611f06602783612430565b91507f4f6e6c7920746865206f776e65722063616e20706572666f726d20746869732060008301527f616374696f6e2e000000000000000000000000000000000000000000000000006020830152604082019050919050565b6000611f6c601483612430565b91507f4974656d20646f6573206e6f742065786973742e0000000000000000000000006000830152602082019050919050565b6000611fac601683612430565b91507f4e6f7420656e6f7567682065746865722073656e742e000000000000000000006000830152602082019050919050565b600060a0830160008301518482036000860152611ffc8282611cfb565b915050602083015184820360208601526120168282611cfb565b915050604083015184820360408601526120308282611cfb565b9150506060830151848203606086015261204a8282611cfb565b915050608083015184820360808601526120648282611cfb565b9150508091505092915050565b61207a8161251f565b82525050565b60006020820190506120956000830184611cdd565b92915050565b60006020820190506120b06000830184611cec565b92915050565b600060a08201905081810360008301526120d08188611d34565b905081810360208301526120e48187611d34565b905081810360408301526120f88186611d34565b9050818103606083015261210c8185611d34565b905081810360808301526121208184611d34565b90509695505050505050565b600060e0820190508181036000830152612146818a611d34565b9050818103602083015261215a8189611d34565b90506121696040830188612071565b6121766060830187612071565b81810360808301526121888186611d34565b905081810360a083015261219c8185611d34565b90506121ab60c0830184612071565b98975050505050505050565b600060208201905081810360008301526121d081611d6d565b9050919050565b600060208201905081810360008301526121f081611dd3565b9050919050565b6000602082019050818103600083015261221081611e13565b9050919050565b6000602082019050818103600083015261223081611e53565b9050919050565b6000602082019050818103600083015261225081611e93565b9050919050565b6000602082019050818103600083015261227081611ef9565b9050919050565b6000602082019050818103600083015261229081611f5f565b9050919050565b600060208201905081810360008301526122b081611f9f565b9050919050565b600060208201905081810360008301526122d18184611fdf565b905092915050565b60006020820190506122ee6000830184612071565b92915050565b60006101408201905061230a600083018d612071565b818103602083015261231c818c611d34565b90508181036040830152612330818b611d34565b90508181036060830152612344818a611d34565b90506123536080830189612071565b61236060a0830188612071565b61236d60c0830187611cce565b81810360e083015261237f8186611d34565b90508181036101008301526123948185611d34565b90506123a4610120830184612071565b9b9a5050505050505050505050565b6000604051905081810181811067ffffffffffffffff821117156123da576123d9612644565b5b8060405250919050565b600067ffffffffffffffff8211156123ff576123fe612644565b5b601f19601f8301169050602081019050919050565b600081519050919050565b600082825260208201905092915050565b600082825260208201905092915050565b600061244c8261251f565b91506124578361251f565b9250817fffffffffffffffffffffffffffffffffffffffffffffffffffffffffffffffff04831182151516156124905761248f6125e6565b5b828202905092915050565b60006124a68261251f565b91506124b18361251f565b9250828210156124c4576124c36125e6565b5b828203905092915050565b60006124da826124ff565b9050919050565b60006124ec826124ff565b9050919050565b60008115159050919050565b600073ffffffffffffffffffffffffffffffffffffffff82169050919050565b6000819050919050565b82818337600083830152505050565b60005b8381101561255657808201518184015260208101905061253b565b83811115612565576000848401525b50505050565b6000600282049050600182168061258357607f821691505b6020821081141561259757612596612615565b5b50919050565b60006125a88261251f565b91507fffffffffffffffffffffffffffffffffffffffffffffffffffffffffffffffff8214156125db576125da6125e6565b5b600182019050919050565b7f4e487b7100000000000000000000000000000000000000000000000000000000600052601160045260246000fd5b7f4e487b7100000000000000000000000000000000000000000000000000000000600052602260045260246000fd5b7f4e487b7100000000000000000000000000000000000000000000000000000000600052604160045260246000fd5b6000601f19601f8301169050919050565b61268d816124cf565b811461269857600080fd5b50565b6126a48161251f565b81146126af57600080fd5b5056fea2646970667358221220510f4db6386813316571d20d7a22f08f37afce52faf90fc9ee38e5eefc3847d064736f6c63430008000033",
  "immutableReferences": {},
  "source": "// SPDX-License-Identifier: UNLICENSED\r\npragma solidity ^0.8.0;\r\n\r\ncontract Amazon {\r\n    address public owner;\r\n    uint256 public itemCount = 1;\r\n\r\n    struct Item {\r\n        uint256 id;\r\n        string name;\r\n        string category;\r\n        string imageUrl;\r\n        uint256 cost;\r\n        uint256 stock;\r\n        address payable seller;\r\n        string manufacturer;\r\n        string dimensions;\r\n        uint256 weight;\r\n    }\r\n\r\n    struct ShippingInfo {\r\n        string name;\r\n        string street;\r\n        string city;\r\n        string postalCode;\r\n        string country;\r\n    }\r\n\r\n    mapping(uint256 => Item) public items;\r\n    mapping(address => bool) public isSeller;\r\n    mapping(address => ShippingInfo) public shippingInfo;\r\n\r\n    event ItemListed(\r\n        uint256 indexed itemId,\r\n        string name,\r\n        string imageUrl,\r\n        uint256 cost,\r\n        uint256 stock,\r\n        address indexed seller,\r\n        string manufacturer,\r\n        string dimensions,\r\n        uint256 weight\r\n    );\r\n    event ItemPurchased(\r\n        uint256 indexed itemId,\r\n        uint256 quantity,\r\n        address indexed buyer\r\n    );\r\n    event ShippingInfoUpdated(\r\n        string name,\r\n        string street,\r\n        string city,\r\n        string postalCode,\r\n        string country,\r\n        address indexed user\r\n    );\r\n    event ItemDeleted(uint256 indexed itemId);\r\n    event SellerAdded(address indexed seller);\r\n    event SellerRemoved(address indexed seller);\r\n\r\n    constructor() {\r\n        owner = msg.sender;\r\n        isSeller[owner] = true;\r\n    }\r\n\r\n    modifier onlyOwner() {\r\n        require(msg.sender == owner, \"Only the owner can perform this action.\");\r\n        _;\r\n    }\r\n\r\n    modifier onlySeller() {\r\n        require(isSeller[msg.sender], \"Only approved sellers can perform this action.\");\r\n        _;\r\n    }\r\n\r\n    function addSeller(address _seller) public onlyOwner {\r\n        isSeller[_seller] = true;\r\n        emit SellerAdded(_seller);\r\n    }\r\n\r\n    function removeSeller(address _seller) public onlyOwner {\r\n        isSeller[_seller] = false;\r\n        emit SellerRemoved(_seller);\r\n    }\r\n\r\n    function list(\r\n        string memory _name,\r\n        string memory _category,\r\n        string memory _imageUrl,\r\n        uint256 _costWei,\r\n        uint256 _stock,\r\n        string memory _manufacturer,\r\n        string memory _dimensions,\r\n        uint256 _weight\r\n        ) public onlySeller {\r\n            items[itemCount] = Item(\r\n                itemCount,\r\n                _name,\r\n                _category,\r\n                _imageUrl,\r\n                _costWei,\r\n                _stock,\r\n                payable(msg.sender),\r\n                _manufacturer,\r\n                _dimensions,\r\n                _weight\r\n            );\r\n            emit ItemListed(\r\n                itemCount,\r\n                _name,\r\n                _imageUrl,\r\n                _costWei,\r\n                _stock,\r\n                msg.sender,\r\n                _manufacturer,\r\n                _dimensions,\r\n                _weight\r\n            );\r\n            itemCount++;\r\n    }\r\n\r\n    function buy(uint256 _id, uint256 _quantity) public payable {\r\n        require(_id < itemCount, \"Item does not exist.\");\r\n        require(_quantity > 0, \"Quantity must be greater than zero.\");\r\n        Item storage item = items[_id];\r\n        uint256 totalCost = item.cost * _quantity;\r\n        require(msg.value >= totalCost, \"Not enough ether sent.\");\r\n        require(item.stock >= _quantity, \"Not enough items in stock.\");\r\n        item.stock -= _quantity;\r\n        item.seller.transfer(msg.value);\r\n        emit ItemPurchased(_id, _quantity, msg.sender);\r\n    }\r\n\r\n    function setShippingInfo(\r\n        string memory _name,\r\n        string memory _street,\r\n        string memory _city,\r\n        string memory _postalCode,\r\n        string memory _country\r\n    ) public {\r\n        shippingInfo[msg.sender] = ShippingInfo(\r\n            _name, \r\n            _street, \r\n            _city, \r\n            _postalCode, \r\n            _country\r\n        );\r\n        emit ShippingInfoUpdated(\r\n            _name, \r\n            _street, \r\n            _city, \r\n            _postalCode, \r\n            _country, \r\n            msg.sender\r\n        );\r\n    }\r\n\r\n    function getShippingInfo(address _user) public view returns (ShippingInfo memory) {\r\n        return shippingInfo[_user];\r\n    }\r\n\r\n    function withdraw() public onlyOwner {\r\n        uint256 balance = address(this).balance;\r\n        require(balance > 0, \"Balance is 0.\");\r\n        payable(owner).transfer(balance);\r\n    }\r\n\r\n    function deleteItem(uint256 itemId) public onlyOwner {\r\n        require(\r\n            items[itemId].seller == msg.sender || msg.sender == owner,\r\n            \"Unauthorized.\"\r\n        );\r\n        delete items[itemId];\r\n        emit ItemDeleted(itemId);\r\n    }\r\n}",
  "sourcePath": "C:\\Users\\marti\\Documents\\projects\\blockchain-amazon\\contracts\\Amazon.sol",
  "compiler": {
    "name": "solc",
    "version": "0.8.0+commit.c7dfd78e.Emscripten.clang"
  },
  "schemaVersion": "3.4.16",
  "updatedAt": "2024-05-14T07:35:48.865Z",
  "networkType": "ethereum",
  "devdoc": {
    "kind": "dev",
    "methods": {},
    "version": 1
  },
  "userdoc": {
    "kind": "user",
    "methods": {},
    "version": 1
  }
}