{
  "contractName": "Amazon",
  "abi": [
    {
      "inputs": [],
      "stateMutability": "nonpayable",
      "type": "constructor"
    },
    {
      "anonymous": false,
      "inputs": [
        {
          "indexed": true,
          "internalType": "uint256",
          "name": "itemId",
          "type": "uint256"
        }
      ],
      "name": "ItemDeleted",
      "type": "event"
    },
    {
      "anonymous": false,
      "inputs": [
        {
          "indexed": true,
          "internalType": "uint256",
          "name": "itemId",
          "type": "uint256"
        },
        {
          "indexed": false,
          "internalType": "string",
          "name": "name",
          "type": "string"
        },
        {
          "indexed": false,
          "internalType": "string",
          "name": "imageUrl",
          "type": "string"
        },
        {
          "indexed": false,
          "internalType": "uint256",
          "name": "cost",
          "type": "uint256"
        },
        {
          "indexed": false,
          "internalType": "uint256",
          "name": "stock",
          "type": "uint256"
        },
        {
          "indexed": true,
          "internalType": "address",
          "name": "seller",
          "type": "address"
        },
        {
          "indexed": false,
          "internalType": "string",
          "name": "manufacturer",
          "type": "string"
        },
        {
          "indexed": false,
          "internalType": "string",
          "name": "dimensions",
          "type": "string"
        },
        {
          "indexed": false,
          "internalType": "uint256",
          "name": "weight",
          "type": "uint256"
        }
      ],
      "name": "ItemListed",
      "type": "event"
    },
    {
      "anonymous": false,
      "inputs": [
        {
          "indexed": true,
          "internalType": "uint256",
          "name": "orderId",
          "type": "uint256"
        },
        {
          "indexed": true,
          "internalType": "uint256",
          "name": "itemId",
          "type": "uint256"
        },
        {
          "indexed": false,
          "internalType": "uint256",
          "name": "quantity",
          "type": "uint256"
        },
        {
          "indexed": true,
          "internalType": "address",
          "name": "buyer",
          "type": "address"
        }
      ],
      "name": "ItemPurchased",
      "type": "event"
    },
    {
      "anonymous": false,
      "inputs": [
        {
          "indexed": false,
          "internalType": "uint256",
          "name": "orderId",
          "type": "uint256"
        },
        {
          "indexed": false,
          "internalType": "address",
          "name": "buyer",
          "type": "address"
        }
      ],
      "name": "OrderCreated",
      "type": "event"
    },
    {
      "anonymous": false,
      "inputs": [
        {
          "indexed": true,
          "internalType": "address",
          "name": "seller",
          "type": "address"
        }
      ],
      "name": "SellerAdded",
      "type": "event"
    },
    {
      "anonymous": false,
      "inputs": [
        {
          "indexed": true,
          "internalType": "address",
          "name": "seller",
          "type": "address"
        }
      ],
      "name": "SellerRemoved",
      "type": "event"
    },
    {
      "anonymous": false,
      "inputs": [
        {
          "indexed": false,
          "internalType": "string",
          "name": "name",
          "type": "string"
        },
        {
          "indexed": false,
          "internalType": "string",
          "name": "street",
          "type": "string"
        },
        {
          "indexed": false,
          "internalType": "string",
          "name": "city",
          "type": "string"
        },
        {
          "indexed": false,
          "internalType": "string",
          "name": "postalCode",
          "type": "string"
        },
        {
          "indexed": false,
          "internalType": "string",
          "name": "country",
          "type": "string"
        },
        {
          "indexed": true,
          "internalType": "address",
          "name": "user",
          "type": "address"
        }
      ],
      "name": "ShippingInfoUpdated",
      "type": "event"
    },
    {
      "inputs": [
        {
          "internalType": "address",
          "name": "",
          "type": "address"
        }
      ],
      "name": "isSeller",
      "outputs": [
        {
          "internalType": "bool",
          "name": "",
          "type": "bool"
        }
      ],
      "stateMutability": "view",
      "type": "function",
      "constant": true
    },
    {
      "inputs": [],
      "name": "itemCount",
      "outputs": [
        {
          "internalType": "uint256",
          "name": "",
          "type": "uint256"
        }
      ],
      "stateMutability": "view",
      "type": "function",
      "constant": true
    },
    {
      "inputs": [
        {
          "internalType": "uint256",
          "name": "",
          "type": "uint256"
        }
      ],
      "name": "items",
      "outputs": [
        {
          "internalType": "uint256",
          "name": "id",
          "type": "uint256"
        },
        {
          "internalType": "string",
          "name": "name",
          "type": "string"
        },
        {
          "internalType": "string",
          "name": "category",
          "type": "string"
        },
        {
          "internalType": "string",
          "name": "imageUrl",
          "type": "string"
        },
        {
          "internalType": "uint256",
          "name": "cost",
          "type": "uint256"
        },
        {
          "internalType": "uint256",
          "name": "stock",
          "type": "uint256"
        },
        {
          "internalType": "address payable",
          "name": "seller",
          "type": "address"
        },
        {
          "internalType": "string",
          "name": "manufacturer",
          "type": "string"
        },
        {
          "internalType": "string",
          "name": "dimensions",
          "type": "string"
        },
        {
          "internalType": "uint256",
          "name": "weight",
          "type": "uint256"
        }
      ],
      "stateMutability": "view",
      "type": "function",
      "constant": true
    },
    {
      "inputs": [
        {
          "internalType": "uint256",
          "name": "",
          "type": "uint256"
        }
      ],
      "name": "orderDetails",
      "outputs": [
        {
          "internalType": "uint256",
          "name": "orderId",
          "type": "uint256"
        },
        {
          "internalType": "uint256",
          "name": "itemId",
          "type": "uint256"
        },
        {
          "internalType": "uint256",
          "name": "quantity",
          "type": "uint256"
        }
      ],
      "stateMutability": "view",
      "type": "function",
      "constant": true
    },
    {
      "inputs": [
        {
          "internalType": "address",
          "name": "",
          "type": "address"
        },
        {
          "internalType": "uint256",
          "name": "",
          "type": "uint256"
        }
      ],
      "name": "orders",
      "outputs": [
        {
          "internalType": "uint256",
          "name": "",
          "type": "uint256"
        }
      ],
      "stateMutability": "view",
      "type": "function",
      "constant": true
    },
    {
      "inputs": [],
      "name": "owner",
      "outputs": [
        {
          "internalType": "address",
          "name": "",
          "type": "address"
        }
      ],
      "stateMutability": "view",
      "type": "function",
      "constant": true
    },
    {
      "inputs": [
        {
          "internalType": "address",
          "name": "",
          "type": "address"
        }
      ],
      "name": "shippingInfo",
      "outputs": [
        {
          "internalType": "string",
          "name": "name",
          "type": "string"
        },
        {
          "internalType": "string",
          "name": "street",
          "type": "string"
        },
        {
          "internalType": "string",
          "name": "city",
          "type": "string"
        },
        {
          "internalType": "string",
          "name": "postalCode",
          "type": "string"
        },
        {
          "internalType": "string",
          "name": "country",
          "type": "string"
        }
      ],
      "stateMutability": "view",
      "type": "function",
      "constant": true
    },
    {
      "inputs": [
        {
          "internalType": "address",
          "name": "_seller",
          "type": "address"
        }
      ],
      "name": "addSeller",
      "outputs": [],
      "stateMutability": "nonpayable",
      "type": "function"
    },
    {
      "inputs": [
        {
          "internalType": "address",
          "name": "_seller",
          "type": "address"
        }
      ],
      "name": "removeSeller",
      "outputs": [],
      "stateMutability": "nonpayable",
      "type": "function"
    },
    {
      "inputs": [
        {
          "internalType": "string",
          "name": "_name",
          "type": "string"
        },
        {
          "internalType": "string",
          "name": "_category",
          "type": "string"
        },
        {
          "internalType": "string",
          "name": "_imageUrl",
          "type": "string"
        },
        {
          "internalType": "uint256",
          "name": "_costWei",
          "type": "uint256"
        },
        {
          "internalType": "uint256",
          "name": "_stock",
          "type": "uint256"
        },
        {
          "internalType": "string",
          "name": "_manufacturer",
          "type": "string"
        },
        {
          "internalType": "string",
          "name": "_dimensions",
          "type": "string"
        },
        {
          "internalType": "uint256",
          "name": "_weight",
          "type": "uint256"
        }
      ],
      "name": "list",
      "outputs": [],
      "stateMutability": "nonpayable",
      "type": "function"
    },
    {
      "inputs": [
        {
          "internalType": "uint256",
          "name": "_itemId",
          "type": "uint256"
        },
        {
          "internalType": "uint256",
          "name": "_quantity",
          "type": "uint256"
        }
      ],
      "name": "buy",
      "outputs": [],
      "stateMutability": "payable",
      "type": "function",
      "payable": true
    },
    {
      "inputs": [
        {
          "internalType": "string",
          "name": "_name",
          "type": "string"
        },
        {
          "internalType": "string",
          "name": "_street",
          "type": "string"
        },
        {
          "internalType": "string",
          "name": "_city",
          "type": "string"
        },
        {
          "internalType": "string",
          "name": "_postalCode",
          "type": "string"
        },
        {
          "internalType": "string",
          "name": "_country",
          "type": "string"
        }
      ],
      "name": "setShippingInfo",
      "outputs": [],
      "stateMutability": "nonpayable",
      "type": "function"
    },
    {
      "inputs": [
        {
          "internalType": "address",
          "name": "_user",
          "type": "address"
        }
      ],
      "name": "getShippingInfo",
      "outputs": [
        {
          "components": [
            {
              "internalType": "string",
              "name": "name",
              "type": "string"
            },
            {
              "internalType": "string",
              "name": "street",
              "type": "string"
            },
            {
              "internalType": "string",
              "name": "city",
              "type": "string"
            },
            {
              "internalType": "string",
              "name": "postalCode",
              "type": "string"
            },
            {
              "internalType": "string",
              "name": "country",
              "type": "string"
            }
          ],
          "internalType": "struct Amazon.ShippingInfo",
          "name": "",
          "type": "tuple"
        }
      ],
      "stateMutability": "view",
      "type": "function",
      "constant": true
    },
    {
      "inputs": [],
      "name": "withdraw",
      "outputs": [],
      "stateMutability": "nonpayable",
      "type": "function"
    },
    {
      "inputs": [
        {
          "internalType": "uint256",
          "name": "itemId",
          "type": "uint256"
        }
      ],
      "name": "deleteItem",
      "outputs": [],
      "stateMutability": "nonpayable",
      "type": "function"
    },
    {
      "inputs": [
        {
          "internalType": "address",
          "name": "user",
          "type": "address"
        }
      ],
      "name": "getOrderIds",
      "outputs": [
        {
          "internalType": "uint256[]",
          "name": "",
          "type": "uint256[]"
        }
      ],
      "stateMutability": "view",
      "type": "function",
      "constant": true
    }
  ],
  "bytecode": "0x60806040526001805534801561001457600080fd5b50336000806101000a81548173ffffffffffffffffffffffffffffffffffffffff021916908373ffffffffffffffffffffffffffffffffffffffff1602179055506001600560008060009054906101000a900473ffffffffffffffffffffffffffffffffffffffff1673ffffffffffffffffffffffffffffffffffffffff1673ffffffffffffffffffffffffffffffffffffffff16815260200190815260200160002060006101000a81548160ff021916908315150217905550612c27806100dd6000396000f3fe6080604052600436106100f35760003560e01c8063bfb231d21161008a578063ee95feaf11610059578063ee95feaf14610322578063f17cfe4e1461035f578063fcfb88ca146103a0578063ff22fb00146103c9576100f3565b8063bfb231d21461025a578063d6febde8146102a0578063d93fabfa146102bc578063e5e24bb7146102e5576100f3565b8063793b8c6d116100c6578063793b8c6d1461018c5780637cb9cf54146101c95780638da5cb5b146101f2578063ba01a8f71461021d576100f3565b806311e93b8d146100f85780633ccfd60b14610121578063654fc833146101385780636bfb0d0114610161575b600080fd5b34801561010457600080fd5b5061011f600480360381019061011a9190611e87565b610408565b005b34801561012d57600080fd5b5061013661068b565b005b34801561014457600080fd5b5061015f600480360381019061015a9190611fb1565b6107cb565b005b34801561016d57600080fd5b50610176610a30565b6040516101839190612744565b60405180910390f35b34801561019857600080fd5b506101b360048036038101906101ae9190611d5c565b610a36565b6040516101c09190612744565b60405180910390f35b3480156101d557600080fd5b506101f060048036038101906101eb9190611d33565b610a67565b005b3480156101fe57600080fd5b50610207610b93565b60405161021491906124c9565b60405180910390f35b34801561022957600080fd5b50610244600480360381019061023f9190611d33565b610bb7565b6040516102519190612722565b60405180910390f35b34801561026657600080fd5b50610281600480360381019061027c9190611fb1565b610eea565b6040516102979a99989796959493929190612788565b60405180910390f35b6102ba60048036038101906102b59190611fda565b611206565b005b3480156102c857600080fd5b506102e360048036038101906102de9190611d33565b61154d565b005b3480156102f157600080fd5b5061030c60048036038101906103079190611d33565b611679565b60405161031991906124e4565b60405180910390f35b34801561032e57600080fd5b5061034960048036038101906103449190611d33565b611710565b6040516103569190612506565b60405180910390f35b34801561036b57600080fd5b5061038660048036038101906103819190611d33565b611730565b604051610397959493929190612521565b60405180910390f35b3480156103ac57600080fd5b506103c760048036038101906103c29190611d98565b611a0e565b005b3480156103d557600080fd5b506103f060048036038101906103eb9190611fb1565b611b65565b6040516103ff93929190612847565b60405180910390f35b600560003373ffffffffffffffffffffffffffffffffffffffff1673ffffffffffffffffffffffffffffffffffffffff16815260200190815260200160002060009054906101000a900460ff16610494576040517f08c379a000000000000000000000000000000000000000000000000000000000815260040161048b906126a2565b60405180910390fd5b60405180610140016040528060015481526020018981526020018881526020018781526020018681526020018581526020013373ffffffffffffffffffffffffffffffffffffffff1681526020018481526020018381526020018281525060036000600154815260200190815260200160002060008201518160000155602082015181600101908051906020019061052d929190611b8f565b50604082015181600201908051906020019061054a929190611b8f565b506060820151816003019080519060200190610567929190611b8f565b506080820151816004015560a0820151816005015560c08201518160060160006101000a81548173ffffffffffffffffffffffffffffffffffffffff021916908373ffffffffffffffffffffffffffffffffffffffff16021790555060e08201518160070190805190602001906105df929190611b8f565b506101008201518160080190805190602001906105fd929190611b8f565b5061012082015181600901559050503373ffffffffffffffffffffffffffffffffffffffff166001547f11ff6d79e73ca42d7cbd99f11d30cfeefd1e106c48e9d1350708991f640a32db8a8989898989896040516106619796959493929190612597565b60405180910390a36001600081548092919061067c90612aa1565b91905055505050505050505050565b60008054906101000a900473ffffffffffffffffffffffffffffffffffffffff1673ffffffffffffffffffffffffffffffffffffffff163373ffffffffffffffffffffffffffffffffffffffff1614610719576040517f08c379a0000000000000000000000000000000000000000000000000000000008152600401610710906126c2565b60405180910390fd5b600047905060008111610761576040517f08c379a000000000000000000000000000000000000000000000000000000000815260040161075890612642565b60405180910390fd5b60008054906101000a900473ffffffffffffffffffffffffffffffffffffffff1673ffffffffffffffffffffffffffffffffffffffff166108fc829081150290604051600060405180830381858888f193505050501580156107c7573d6000803e3d6000fd5b5050565b60008054906101000a900473ffffffffffffffffffffffffffffffffffffffff1673ffffffffffffffffffffffffffffffffffffffff163373ffffffffffffffffffffffffffffffffffffffff1614610859576040517f08c379a0000000000000000000000000000000000000000000000000000000008152600401610850906126c2565b60405180910390fd5b3373ffffffffffffffffffffffffffffffffffffffff166003600083815260200190815260200160002060060160009054906101000a900473ffffffffffffffffffffffffffffffffffffffff1673ffffffffffffffffffffffffffffffffffffffff161480610914575060008054906101000a900473ffffffffffffffffffffffffffffffffffffffff1673ffffffffffffffffffffffffffffffffffffffff163373ffffffffffffffffffffffffffffffffffffffff16145b610953576040517f08c379a000000000000000000000000000000000000000000000000000000000815260040161094a90612682565b60405180910390fd5b6003600082815260200190815260200160002060008082016000905560018201600061097f9190611c15565b60028201600061098f9190611c15565b60038201600061099f9190611c15565b600482016000905560058201600090556006820160006101000a81549073ffffffffffffffffffffffffffffffffffffffff02191690556007820160006109e69190611c15565b6008820160006109f69190611c15565b60098201600090555050807f3d0be3a3bbdb36b253d40a546d15d6b7f402fc43e4cd4a067af359b0763b6f3c60405160405180910390a250565b60015481565b60026020528160005260406000208181548110610a5257600080fd5b90600052602060002001600091509150505481565b60008054906101000a900473ffffffffffffffffffffffffffffffffffffffff1673ffffffffffffffffffffffffffffffffffffffff163373ffffffffffffffffffffffffffffffffffffffff1614610af5576040517f08c379a0000000000000000000000000000000000000000000000000000000008152600401610aec906126c2565b60405180910390fd5b6000600560008373ffffffffffffffffffffffffffffffffffffffff1673ffffffffffffffffffffffffffffffffffffffff16815260200190815260200160002060006101000a81548160ff0219169083151502179055508073ffffffffffffffffffffffffffffffffffffffff167fa6f3b3030df964d974376ba4db21cbe49207bd79998f0d619c1c3a422259707f60405160405180910390a250565b60008054906101000a900473ffffffffffffffffffffffffffffffffffffffff1681565b610bbf611c55565b600660008373ffffffffffffffffffffffffffffffffffffffff1673ffffffffffffffffffffffffffffffffffffffff1681526020019081526020016000206040518060a0016040529081600082018054610c1990612a6f565b80601f0160208091040260200160405190810160405280929190818152602001828054610c4590612a6f565b8015610c925780601f10610c6757610100808354040283529160200191610c92565b820191906000526020600020905b815481529060010190602001808311610c7557829003601f168201915b50505050508152602001600182018054610cab90612a6f565b80601f0160208091040260200160405190810160405280929190818152602001828054610cd790612a6f565b8015610d245780601f10610cf957610100808354040283529160200191610d24565b820191906000526020600020905b815481529060010190602001808311610d0757829003601f168201915b50505050508152602001600282018054610d3d90612a6f565b80601f0160208091040260200160405190810160405280929190818152602001828054610d6990612a6f565b8015610db65780601f10610d8b57610100808354040283529160200191610db6565b820191906000526020600020905b815481529060010190602001808311610d9957829003601f168201915b50505050508152602001600382018054610dcf90612a6f565b80601f0160208091040260200160405190810160405280929190818152602001828054610dfb90612a6f565b8015610e485780601f10610e1d57610100808354040283529160200191610e48565b820191906000526020600020905b815481529060010190602001808311610e2b57829003601f168201915b50505050508152602001600482018054610e6190612a6f565b80601f0160208091040260200160405190810160405280929190818152602001828054610e8d90612a6f565b8015610eda5780601f10610eaf57610100808354040283529160200191610eda565b820191906000526020600020905b815481529060010190602001808311610ebd57829003601f168201915b5050505050815250509050919050565b6003602052806000526040600020600091509050806000015490806001018054610f1390612a6f565b80601f0160208091040260200160405190810160405280929190818152602001828054610f3f90612a6f565b8015610f8c5780601f10610f6157610100808354040283529160200191610f8c565b820191906000526020600020905b815481529060010190602001808311610f6f57829003601f168201915b505050505090806002018054610fa190612a6f565b80601f0160208091040260200160405190810160405280929190818152602001828054610fcd90612a6f565b801561101a5780601f10610fef5761010080835404028352916020019161101a565b820191906000526020600020905b815481529060010190602001808311610ffd57829003601f168201915b50505050509080600301805461102f90612a6f565b80601f016020809104026020016040519081016040528092919081815260200182805461105b90612a6f565b80156110a85780601f1061107d576101008083540402835291602001916110a8565b820191906000526020600020905b81548152906001019060200180831161108b57829003601f168201915b5050505050908060040154908060050154908060060160009054906101000a900473ffffffffffffffffffffffffffffffffffffffff16908060070180546110ef90612a6f565b80601f016020809104026020016040519081016040528092919081815260200182805461111b90612a6f565b80156111685780601f1061113d57610100808354040283529160200191611168565b820191906000526020600020905b81548152906001019060200180831161114b57829003601f168201915b50505050509080600801805461117d90612a6f565b80601f01602080910402602001604051908101604052809291908181526020018280546111a990612a6f565b80156111f65780601f106111cb576101008083540402835291602001916111f6565b820191906000526020600020905b8154815290600101906020018083116111d957829003601f168201915b505050505090806009015490508a565b600154821080156112175750600082115b611256576040517f08c379a000000000000000000000000000000000000000000000000000000000815260040161124d906126e2565b60405180910390fd5b60008111611299576040517f08c379a000000000000000000000000000000000000000000000000000000000815260040161129090612622565b60405180910390fd5b600060036000848152602001908152602001600020905060008282600401546112c29190612945565b905080341015611307576040517f08c379a00000000000000000000000000000000000000000000000000000000081526004016112fe90612702565b60405180910390fd5b828260050154101561134e576040517f08c379a000000000000000000000000000000000000000000000000000000000815260040161134590612662565b60405180910390fd5b82826005016000828254611362919061299f565b92505081905550600042338686604051602001611382949392919061247b565b6040516020818303038152906040528051906020012060001c9050600260003373ffffffffffffffffffffffffffffffffffffffff1673ffffffffffffffffffffffffffffffffffffffff168152602001908152602001600020819080600181540180825580915050600190039060005260206000200160009091909190915055604051806060016040528082815260200186815260200185815250600460008381526020019081526020016000206000820151816000015560208201518160010155604082015181600201559050507f4ceaea0569072c9203c8c195ffccdbca9851b9d0410f577878a6792f12ec9b52813360405161148392919061275f565b60405180910390a18260060160009054906101000a900473ffffffffffffffffffffffffffffffffffffffff1673ffffffffffffffffffffffffffffffffffffffff166108fc349081150290604051600060405180830381858888f193505050501580156114f5573d6000803e3d6000fd5b503373ffffffffffffffffffffffffffffffffffffffff1685827feaee89fdd4cee98beb8c0bdc181911792880af10fdf6af6b1c78cfbf458d00658760405161153e9190612744565b60405180910390a45050505050565b60008054906101000a900473ffffffffffffffffffffffffffffffffffffffff1673ffffffffffffffffffffffffffffffffffffffff163373ffffffffffffffffffffffffffffffffffffffff16146115db576040517f08c379a00000000000000000000000000000000000000000000000000000000081526004016115d2906126c2565b60405180910390fd5b6001600560008373ffffffffffffffffffffffffffffffffffffffff1673ffffffffffffffffffffffffffffffffffffffff16815260200190815260200160002060006101000a81548160ff0219169083151502179055508073ffffffffffffffffffffffffffffffffffffffff167f3d78526f2568d430fd8e20719601f7bc3f979936f8880236cc284e8127251b4260405160405180910390a250565b6060600260008373ffffffffffffffffffffffffffffffffffffffff1673ffffffffffffffffffffffffffffffffffffffff16815260200190815260200160002080548060200260200160405190810160405280929190818152602001828054801561170457602002820191906000526020600020905b8154815260200190600101908083116116f0575b50505050509050919050565b60056020528060005260406000206000915054906101000a900460ff1681565b600660205280600052604060002060009150905080600001805461175390612a6f565b80601f016020809104026020016040519081016040528092919081815260200182805461177f90612a6f565b80156117cc5780601f106117a1576101008083540402835291602001916117cc565b820191906000526020600020905b8154815290600101906020018083116117af57829003601f168201915b5050505050908060010180546117e190612a6f565b80601f016020809104026020016040519081016040528092919081815260200182805461180d90612a6f565b801561185a5780601f1061182f5761010080835404028352916020019161185a565b820191906000526020600020905b81548152906001019060200180831161183d57829003601f168201915b50505050509080600201805461186f90612a6f565b80601f016020809104026020016040519081016040528092919081815260200182805461189b90612a6f565b80156118e85780601f106118bd576101008083540402835291602001916118e8565b820191906000526020600020905b8154815290600101906020018083116118cb57829003601f168201915b5050505050908060030180546118fd90612a6f565b80601f016020809104026020016040519081016040528092919081815260200182805461192990612a6f565b80156119765780601f1061194b57610100808354040283529160200191611976565b820191906000526020600020905b81548152906001019060200180831161195957829003601f168201915b50505050509080600401805461198b90612a6f565b80601f01602080910402602001604051908101604052809291908181526020018280546119b790612a6f565b8015611a045780601f106119d957610100808354040283529160200191611a04565b820191906000526020600020905b8154815290600101906020018083116119e757829003601f168201915b5050505050905085565b6040518060a0016040528086815260200185815260200184815260200183815260200182815250600660003373ffffffffffffffffffffffffffffffffffffffff1673ffffffffffffffffffffffffffffffffffffffff1681526020019081526020016000206000820151816000019080519060200190611a90929190611b8f565b506020820151816001019080519060200190611aad929190611b8f565b506040820151816002019080519060200190611aca929190611b8f565b506060820151816003019080519060200190611ae7929190611b8f565b506080820151816004019080519060200190611b04929190611b8f565b509050503373ffffffffffffffffffffffffffffffffffffffff167fbc776c400a9deb1fbcc5526fb3febaae01f0993971a2822617569a73659a940a8686868686604051611b56959493929190612521565b60405180910390a25050505050565b60046020528060005260406000206000915090508060000154908060010154908060020154905083565b828054611b9b90612a6f565b90600052602060002090601f016020900481019282611bbd5760008555611c04565b82601f10611bd657805160ff1916838001178555611c04565b82800160010185558215611c04579182015b82811115611c03578251825591602001919060010190611be8565b5b509050611c119190611c84565b5090565b508054611c2190612a6f565b6000825580601f10611c335750611c52565b601f016020900490600052602060002090810190611c519190611c84565b5b50565b6040518060a0016040528060608152602001606081526020016060815260200160608152602001606081525090565b5b80821115611c9d576000816000905550600101611c85565b5090565b6000611cb4611caf846128af565b61287e565b905082815260208101848484011115611ccc57600080fd5b611cd7848285612a2d565b509392505050565b600081359050611cee81612bc3565b92915050565b600082601f830112611d0557600080fd5b8135611d15848260208601611ca1565b91505092915050565b600081359050611d2d81612bda565b92915050565b600060208284031215611d4557600080fd5b6000611d5384828501611cdf565b91505092915050565b60008060408385031215611d6f57600080fd5b6000611d7d85828601611cdf565b9250506020611d8e85828601611d1e565b9150509250929050565b600080600080600060a08688031215611db057600080fd5b600086013567ffffffffffffffff811115611dca57600080fd5b611dd688828901611cf4565b955050602086013567ffffffffffffffff811115611df357600080fd5b611dff88828901611cf4565b945050604086013567ffffffffffffffff811115611e1c57600080fd5b611e2888828901611cf4565b935050606086013567ffffffffffffffff811115611e4557600080fd5b611e5188828901611cf4565b925050608086013567ffffffffffffffff811115611e6e57600080fd5b611e7a88828901611cf4565b9150509295509295909350565b600080600080600080600080610100898b031215611ea457600080fd5b600089013567ffffffffffffffff811115611ebe57600080fd5b611eca8b828c01611cf4565b985050602089013567ffffffffffffffff811115611ee757600080fd5b611ef38b828c01611cf4565b975050604089013567ffffffffffffffff811115611f1057600080fd5b611f1c8b828c01611cf4565b9650506060611f2d8b828c01611d1e565b9550506080611f3e8b828c01611d1e565b94505060a089013567ffffffffffffffff811115611f5b57600080fd5b611f678b828c01611cf4565b93505060c089013567ffffffffffffffff811115611f8457600080fd5b611f908b828c01611cf4565b92505060e0611fa18b828c01611d1e565b9150509295985092959890939650565b600060208284031215611fc357600080fd5b6000611fd184828501611d1e565b91505092915050565b60008060408385031215611fed57600080fd5b6000611ffb85828601611d1e565b925050602061200c85828601611d1e565b9150509250929050565b60006120228383612446565b60208301905092915050565b612037816129e5565b82525050565b612046816129d3565b82525050565b61205d612058826129d3565b612aea565b82525050565b600061206e826128ef565b6120788185612912565b9350612083836128df565b8060005b838110156120b457815161209b8882612016565b97506120a683612905565b925050600181019050612087565b5085935050505092915050565b6120ca816129f7565b82525050565b60006120db826128fa565b6120e58185612923565b93506120f5818560208601612a3c565b6120fe81612ba5565b840191505092915050565b6000612114826128fa565b61211e8185612934565b935061212e818560208601612a3c565b61213781612ba5565b840191505092915050565b600061214f602383612934565b91507f5175616e74697479206d7573742062652067726561746572207468616e207a6560008301527f726f2e00000000000000000000000000000000000000000000000000000000006020830152604082019050919050565b60006121b5600d83612934565b91507f42616c616e636520697320302e000000000000000000000000000000000000006000830152602082019050919050565b60006121f5601a83612934565b91507f4e6f7420656e6f756768206974656d7320696e2073746f636b2e0000000000006000830152602082019050919050565b6000612235600d83612934565b91507f556e617574686f72697a65642e000000000000000000000000000000000000006000830152602082019050919050565b6000612275602e83612934565b91507f4f6e6c7920617070726f7665642073656c6c6572732063616e20706572666f7260008301527f6d207468697320616374696f6e2e0000000000000000000000000000000000006020830152604082019050919050565b60006122db602783612934565b91507f4f6e6c7920746865206f776e65722063616e20706572666f726d20746869732060008301527f616374696f6e2e000000000000000000000000000000000000000000000000006020830152604082019050919050565b6000612341601483612934565b91507f4974656d20646f6573206e6f742065786973742e0000000000000000000000006000830152602082019050919050565b6000612381601683612934565b91507f4e6f7420656e6f7567682065746865722073656e742e000000000000000000006000830152602082019050919050565b600060a08301600083015184820360008601526123d182826120d0565b915050602083015184820360208601526123eb82826120d0565b9150506040830151848203604086015261240582826120d0565b9150506060830151848203606086015261241f82826120d0565b9150506080830151848203608086015261243982826120d0565b9150508091505092915050565b61244f81612a23565b82525050565b61245e81612a23565b82525050565b61247561247082612a23565b612b0e565b82525050565b60006124878287612464565b602082019150612497828661204c565b6014820191506124a78285612464565b6020820191506124b78284612464565b60208201915081905095945050505050565b60006020820190506124de600083018461203d565b92915050565b600060208201905081810360008301526124fe8184612063565b905092915050565b600060208201905061251b60008301846120c1565b92915050565b600060a082019050818103600083015261253b8188612109565b9050818103602083015261254f8187612109565b905081810360408301526125638186612109565b905081810360608301526125778185612109565b9050818103608083015261258b8184612109565b90509695505050505050565b600060e08201905081810360008301526125b1818a612109565b905081810360208301526125c58189612109565b90506125d46040830188612455565b6125e16060830187612455565b81810360808301526125f38186612109565b905081810360a08301526126078185612109565b905061261660c0830184612455565b98975050505050505050565b6000602082019050818103600083015261263b81612142565b9050919050565b6000602082019050818103600083015261265b816121a8565b9050919050565b6000602082019050818103600083015261267b816121e8565b9050919050565b6000602082019050818103600083015261269b81612228565b9050919050565b600060208201905081810360008301526126bb81612268565b9050919050565b600060208201905081810360008301526126db816122ce565b9050919050565b600060208201905081810360008301526126fb81612334565b9050919050565b6000602082019050818103600083015261271b81612374565b9050919050565b6000602082019050818103600083015261273c81846123b4565b905092915050565b60006020820190506127596000830184612455565b92915050565b60006040820190506127746000830185612455565b612781602083018461203d565b9392505050565b60006101408201905061279e600083018d612455565b81810360208301526127b0818c612109565b905081810360408301526127c4818b612109565b905081810360608301526127d8818a612109565b90506127e76080830189612455565b6127f460a0830188612455565b61280160c083018761202e565b81810360e08301526128138186612109565b90508181036101008301526128288185612109565b9050612838610120830184612455565b9b9a5050505050505050505050565b600060608201905061285c6000830186612455565b6128696020830185612455565b6128766040830184612455565b949350505050565b6000604051905081810181811067ffffffffffffffff821117156128a5576128a4612b76565b5b8060405250919050565b600067ffffffffffffffff8211156128ca576128c9612b76565b5b601f19601f8301169050602081019050919050565b6000819050602082019050919050565b600081519050919050565b600081519050919050565b6000602082019050919050565b600082825260208201905092915050565b600082825260208201905092915050565b600082825260208201905092915050565b600061295082612a23565b915061295b83612a23565b9250817fffffffffffffffffffffffffffffffffffffffffffffffffffffffffffffffff048311821515161561299457612993612b18565b5b828202905092915050565b60006129aa82612a23565b91506129b583612a23565b9250828210156129c8576129c7612b18565b5b828203905092915050565b60006129de82612a03565b9050919050565b60006129f082612a03565b9050919050565b60008115159050919050565b600073ffffffffffffffffffffffffffffffffffffffff82169050919050565b6000819050919050565b82818337600083830152505050565b60005b83811015612a5a578082015181840152602081019050612a3f565b83811115612a69576000848401525b50505050565b60006002820490506001821680612a8757607f821691505b60208210811415612a9b57612a9a612b47565b5b50919050565b6000612aac82612a23565b91507fffffffffffffffffffffffffffffffffffffffffffffffffffffffffffffffff821415612adf57612ade612b18565b5b600182019050919050565b6000612af582612afc565b9050919050565b6000612b0782612bb6565b9050919050565b6000819050919050565b7f4e487b7100000000000000000000000000000000000000000000000000000000600052601160045260246000fd5b7f4e487b7100000000000000000000000000000000000000000000000000000000600052602260045260246000fd5b7f4e487b7100000000000000000000000000000000000000000000000000000000600052604160045260246000fd5b6000601f19601f8301169050919050565b60008160601b9050919050565b612bcc816129d3565b8114612bd757600080fd5b50565b612be381612a23565b8114612bee57600080fd5b5056fea2646970667358221220d21e9370cd4cc20284682afaa45d5f904daa313ab0cbbc1577c77d023411cfc064736f6c63430008000033",
  "immutableReferences": {},
  "source": "// SPDX-License-Identifier: UNLICENSED\r\npragma solidity ^0.8.0;\r\n\r\ncontract Amazon {\r\n    address public owner;\r\n    uint256 public itemCount = 1;\r\n\r\n    struct Item {\r\n        uint256 id;\r\n        string name;\r\n        string category;\r\n        string imageUrl;\r\n        uint256 cost;\r\n        uint256 stock;\r\n        address payable seller;\r\n        string manufacturer;\r\n        string dimensions;\r\n        uint256 weight;\r\n    }\r\n\r\n    struct Order {\r\n        uint256 orderId;\r\n        uint256 itemId;\r\n        uint256 quantity;\r\n    }\r\n\r\n    struct ShippingInfo {\r\n        string name;\r\n        string street;\r\n        string city;\r\n        string postalCode;\r\n        string country;\r\n    }\r\n\r\n    mapping(address => uint256[]) public orders;\r\n    mapping(uint256 => Item) public items;\r\n    mapping(uint256 => Order) public orderDetails;\r\n    mapping(address => bool) public isSeller;\r\n    mapping(address => ShippingInfo) public shippingInfo;\r\n\r\n    event ItemListed(uint256 indexed itemId, string name, string imageUrl, uint256 cost, uint256 stock, address indexed seller, string manufacturer, string dimensions, uint256 weight);\r\n    event ItemPurchased(uint256 indexed orderId, uint256 indexed itemId, uint256 quantity, address indexed buyer);\r\n    event ShippingInfoUpdated(string name, string street, string city, string postalCode, string country, address indexed user);\r\n    event ItemDeleted(uint256 indexed itemId);\r\n    event SellerAdded(address indexed seller);\r\n    event SellerRemoved(address indexed seller);\r\n    event OrderCreated(uint256 orderId, address buyer);\r\n\r\n    constructor() {\r\n        owner = msg.sender;\r\n        isSeller[owner] = true;\r\n    }\r\n\r\n    modifier onlyOwner() {\r\n        require(msg.sender == owner, \"Only the owner can perform this action.\");\r\n        _;\r\n    }\r\n\r\n    modifier onlySeller() {\r\n        require(isSeller[msg.sender], \"Only approved sellers can perform this action.\");\r\n        _;\r\n    }\r\n\r\n    function addSeller(address _seller) public onlyOwner {\r\n        isSeller[_seller] = true;\r\n        emit SellerAdded(_seller);\r\n    }\r\n\r\n    function removeSeller(address _seller) public onlyOwner {\r\n        isSeller[_seller] = false;\r\n        emit SellerRemoved(_seller);\r\n    }\r\n\r\n    function list(string memory _name, string memory _category, string memory _imageUrl, uint256 _costWei, uint256 _stock, string memory _manufacturer, string memory _dimensions, uint256 _weight) public onlySeller {\r\n        items[itemCount] = Item(itemCount, _name, _category, _imageUrl, _costWei, _stock, payable(msg.sender), _manufacturer, _dimensions, _weight);\r\n        emit ItemListed(itemCount, _name, _imageUrl, _costWei, _stock, msg.sender, _manufacturer, _dimensions, _weight);\r\n        itemCount++;\r\n    }\r\n\r\n    function buy(uint256 _itemId, uint256 _quantity) public payable {\r\n        require(_itemId < itemCount && _itemId > 0, \"Item does not exist.\");\r\n        require(_quantity > 0, \"Quantity must be greater than zero.\");\r\n        Item storage item = items[_itemId];\r\n        uint256 totalCost = item.cost * _quantity;\r\n        require(msg.value >= totalCost, \"Not enough ether sent.\");\r\n        require(item.stock >= _quantity, \"Not enough items in stock.\");\r\n        item.stock -= _quantity;\r\n        \r\n        uint256 orderId = uint256(keccak256(abi.encodePacked(block.timestamp, msg.sender, _itemId, _quantity)));\r\n        orders[msg.sender].push(orderId);\r\n        orderDetails[orderId] = Order(orderId, _itemId, _quantity);\r\n\r\n        emit OrderCreated(orderId, msg.sender);  // Emit the order creation event\r\n        \r\n        item.seller.transfer(msg.value);\r\n        emit ItemPurchased(orderId, _itemId, _quantity, msg.sender);\r\n    }\r\n\r\n    function setShippingInfo(string memory _name, string memory _street, string memory _city, string memory _postalCode, string memory _country) public {\r\n        shippingInfo[msg.sender] = ShippingInfo(_name, _street, _city, _postalCode, _country);\r\n        emit ShippingInfoUpdated(_name, _street, _city, _postalCode, _country, msg.sender);\r\n    }\r\n\r\n    function getShippingInfo(address _user) public view returns (ShippingInfo memory) {\r\n        return shippingInfo[_user];\r\n    }\r\n\r\n    function withdraw() public onlyOwner {\r\n        uint256 balance = address(this).balance;\r\n        require(balance > 0, \"Balance is 0.\");\r\n        payable(owner).transfer(balance);\r\n    }\r\n\r\n    function deleteItem(uint256 itemId) public onlyOwner {\r\n        require(items[itemId].seller == msg.sender || msg.sender == owner, \"Unauthorized.\");\r\n        delete items[itemId];\r\n        emit ItemDeleted(itemId);\r\n    }\r\n\r\n    function getOrderIds(address user) public view returns (uint256[] memory) {\r\n        return orders[user];\r\n    }\r\n}\r\n",
  "sourcePath": "C:\\Users\\marti\\Documents\\projects\\blockchain-amazon\\contracts\\Amazon.sol",
  "compiler": {
    "name": "solc",
    "version": "0.8.0+commit.c7dfd78e.Emscripten.clang"
  },
  "schemaVersion": "3.4.16",
  "updatedAt": "2024-05-15T09:21:14.640Z",
  "networkType": "ethereum",
  "devdoc": {
    "kind": "dev",
    "methods": {},
    "version": 1
  },
  "userdoc": {
    "kind": "user",
    "methods": {},
    "version": 1
  }
}