{
  "contractName": "Amazon",
  "abi": [
    {
      "inputs": [],
      "stateMutability": "nonpayable",
      "type": "constructor"
    },
    {
      "anonymous": false,
      "inputs": [
        {
          "indexed": true,
          "internalType": "uint256",
          "name": "itemId",
          "type": "uint256"
        }
      ],
      "name": "ItemDeleted",
      "type": "event"
    },
    {
      "anonymous": false,
      "inputs": [
        {
          "indexed": true,
          "internalType": "uint256",
          "name": "itemId",
          "type": "uint256"
        },
        {
          "indexed": false,
          "internalType": "string",
          "name": "name",
          "type": "string"
        },
        {
          "indexed": false,
          "internalType": "string",
          "name": "imageUrl",
          "type": "string"
        },
        {
          "indexed": false,
          "internalType": "uint256",
          "name": "cost",
          "type": "uint256"
        },
        {
          "indexed": false,
          "internalType": "uint256",
          "name": "stock",
          "type": "uint256"
        },
        {
          "indexed": true,
          "internalType": "address",
          "name": "seller",
          "type": "address"
        },
        {
          "indexed": false,
          "internalType": "string",
          "name": "manufacturer",
          "type": "string"
        },
        {
          "indexed": false,
          "internalType": "string",
          "name": "dimensions",
          "type": "string"
        },
        {
          "indexed": false,
          "internalType": "uint256",
          "name": "weight",
          "type": "uint256"
        }
      ],
      "name": "ItemListed",
      "type": "event"
    },
    {
      "anonymous": false,
      "inputs": [
        {
          "indexed": true,
          "internalType": "uint256",
          "name": "orderId",
          "type": "uint256"
        },
        {
          "indexed": true,
          "internalType": "uint256",
          "name": "itemId",
          "type": "uint256"
        },
        {
          "indexed": false,
          "internalType": "string",
          "name": "itemName",
          "type": "string"
        },
        {
          "indexed": false,
          "internalType": "string",
          "name": "itemCategory",
          "type": "string"
        },
        {
          "indexed": false,
          "internalType": "string",
          "name": "itemImageUrl",
          "type": "string"
        },
        {
          "indexed": false,
          "internalType": "uint256",
          "name": "itemCost",
          "type": "uint256"
        },
        {
          "indexed": false,
          "internalType": "uint256",
          "name": "quantity",
          "type": "uint256"
        },
        {
          "indexed": true,
          "internalType": "address",
          "name": "buyer",
          "type": "address"
        }
      ],
      "name": "ItemPurchased",
      "type": "event"
    },
    {
      "anonymous": false,
      "inputs": [
        {
          "indexed": false,
          "internalType": "uint256",
          "name": "orderId",
          "type": "uint256"
        },
        {
          "indexed": false,
          "internalType": "address",
          "name": "buyer",
          "type": "address"
        }
      ],
      "name": "OrderCreated",
      "type": "event"
    },
    {
      "anonymous": false,
      "inputs": [
        {
          "indexed": true,
          "internalType": "address",
          "name": "seller",
          "type": "address"
        }
      ],
      "name": "SellerAdded",
      "type": "event"
    },
    {
      "anonymous": false,
      "inputs": [
        {
          "indexed": true,
          "internalType": "address",
          "name": "seller",
          "type": "address"
        }
      ],
      "name": "SellerRemoved",
      "type": "event"
    },
    {
      "anonymous": false,
      "inputs": [
        {
          "indexed": false,
          "internalType": "string",
          "name": "name",
          "type": "string"
        },
        {
          "indexed": false,
          "internalType": "string",
          "name": "street",
          "type": "string"
        },
        {
          "indexed": false,
          "internalType": "string",
          "name": "city",
          "type": "string"
        },
        {
          "indexed": false,
          "internalType": "string",
          "name": "postalCode",
          "type": "string"
        },
        {
          "indexed": false,
          "internalType": "string",
          "name": "country",
          "type": "string"
        },
        {
          "indexed": true,
          "internalType": "address",
          "name": "user",
          "type": "address"
        }
      ],
      "name": "ShippingInfoUpdated",
      "type": "event"
    },
    {
      "inputs": [
        {
          "internalType": "address",
          "name": "",
          "type": "address"
        }
      ],
      "name": "isSeller",
      "outputs": [
        {
          "internalType": "bool",
          "name": "",
          "type": "bool"
        }
      ],
      "stateMutability": "view",
      "type": "function",
      "constant": true
    },
    {
      "inputs": [],
      "name": "itemCount",
      "outputs": [
        {
          "internalType": "uint256",
          "name": "",
          "type": "uint256"
        }
      ],
      "stateMutability": "view",
      "type": "function",
      "constant": true
    },
    {
      "inputs": [
        {
          "internalType": "uint256",
          "name": "",
          "type": "uint256"
        }
      ],
      "name": "items",
      "outputs": [
        {
          "internalType": "uint256",
          "name": "id",
          "type": "uint256"
        },
        {
          "internalType": "string",
          "name": "name",
          "type": "string"
        },
        {
          "internalType": "string",
          "name": "category",
          "type": "string"
        },
        {
          "internalType": "string",
          "name": "imageUrl",
          "type": "string"
        },
        {
          "internalType": "uint256",
          "name": "cost",
          "type": "uint256"
        },
        {
          "internalType": "uint256",
          "name": "stock",
          "type": "uint256"
        },
        {
          "internalType": "address payable",
          "name": "seller",
          "type": "address"
        },
        {
          "internalType": "string",
          "name": "manufacturer",
          "type": "string"
        },
        {
          "internalType": "string",
          "name": "dimensions",
          "type": "string"
        },
        {
          "internalType": "uint256",
          "name": "weight",
          "type": "uint256"
        }
      ],
      "stateMutability": "view",
      "type": "function",
      "constant": true
    },
    {
      "inputs": [
        {
          "internalType": "uint256",
          "name": "",
          "type": "uint256"
        }
      ],
      "name": "orderDetails",
      "outputs": [
        {
          "internalType": "uint256",
          "name": "orderId",
          "type": "uint256"
        },
        {
          "internalType": "uint256",
          "name": "itemId",
          "type": "uint256"
        },
        {
          "internalType": "uint256",
          "name": "quantity",
          "type": "uint256"
        }
      ],
      "stateMutability": "view",
      "type": "function",
      "constant": true
    },
    {
      "inputs": [
        {
          "internalType": "address",
          "name": "",
          "type": "address"
        },
        {
          "internalType": "uint256",
          "name": "",
          "type": "uint256"
        }
      ],
      "name": "orders",
      "outputs": [
        {
          "internalType": "uint256",
          "name": "",
          "type": "uint256"
        }
      ],
      "stateMutability": "view",
      "type": "function",
      "constant": true
    },
    {
      "inputs": [],
      "name": "owner",
      "outputs": [
        {
          "internalType": "address",
          "name": "",
          "type": "address"
        }
      ],
      "stateMutability": "view",
      "type": "function",
      "constant": true
    },
    {
      "inputs": [
        {
          "internalType": "address",
          "name": "",
          "type": "address"
        }
      ],
      "name": "shippingInfo",
      "outputs": [
        {
          "internalType": "string",
          "name": "name",
          "type": "string"
        },
        {
          "internalType": "string",
          "name": "street",
          "type": "string"
        },
        {
          "internalType": "string",
          "name": "city",
          "type": "string"
        },
        {
          "internalType": "string",
          "name": "postalCode",
          "type": "string"
        },
        {
          "internalType": "string",
          "name": "country",
          "type": "string"
        }
      ],
      "stateMutability": "view",
      "type": "function",
      "constant": true
    },
    {
      "inputs": [
        {
          "internalType": "address",
          "name": "_seller",
          "type": "address"
        }
      ],
      "name": "addSeller",
      "outputs": [],
      "stateMutability": "nonpayable",
      "type": "function"
    },
    {
      "inputs": [
        {
          "internalType": "address",
          "name": "_seller",
          "type": "address"
        }
      ],
      "name": "removeSeller",
      "outputs": [],
      "stateMutability": "nonpayable",
      "type": "function"
    },
    {
      "inputs": [
        {
          "internalType": "string",
          "name": "_name",
          "type": "string"
        },
        {
          "internalType": "string",
          "name": "_category",
          "type": "string"
        },
        {
          "internalType": "string",
          "name": "_imageUrl",
          "type": "string"
        },
        {
          "internalType": "uint256",
          "name": "_costWei",
          "type": "uint256"
        },
        {
          "internalType": "uint256",
          "name": "_stock",
          "type": "uint256"
        },
        {
          "internalType": "string",
          "name": "_manufacturer",
          "type": "string"
        },
        {
          "internalType": "string",
          "name": "_dimensions",
          "type": "string"
        },
        {
          "internalType": "uint256",
          "name": "_weight",
          "type": "uint256"
        }
      ],
      "name": "list",
      "outputs": [],
      "stateMutability": "nonpayable",
      "type": "function"
    },
    {
      "inputs": [
        {
          "internalType": "uint256",
          "name": "_itemId",
          "type": "uint256"
        },
        {
          "internalType": "uint256",
          "name": "_quantity",
          "type": "uint256"
        }
      ],
      "name": "buy",
      "outputs": [],
      "stateMutability": "payable",
      "type": "function",
      "payable": true
    },
    {
      "inputs": [
        {
          "internalType": "string",
          "name": "_name",
          "type": "string"
        },
        {
          "internalType": "string",
          "name": "_street",
          "type": "string"
        },
        {
          "internalType": "string",
          "name": "_city",
          "type": "string"
        },
        {
          "internalType": "string",
          "name": "_postalCode",
          "type": "string"
        },
        {
          "internalType": "string",
          "name": "_country",
          "type": "string"
        }
      ],
      "name": "setShippingInfo",
      "outputs": [],
      "stateMutability": "nonpayable",
      "type": "function"
    },
    {
      "inputs": [
        {
          "internalType": "address",
          "name": "_user",
          "type": "address"
        }
      ],
      "name": "getShippingInfo",
      "outputs": [
        {
          "components": [
            {
              "internalType": "string",
              "name": "name",
              "type": "string"
            },
            {
              "internalType": "string",
              "name": "street",
              "type": "string"
            },
            {
              "internalType": "string",
              "name": "city",
              "type": "string"
            },
            {
              "internalType": "string",
              "name": "postalCode",
              "type": "string"
            },
            {
              "internalType": "string",
              "name": "country",
              "type": "string"
            }
          ],
          "internalType": "struct Amazon.ShippingInfo",
          "name": "",
          "type": "tuple"
        }
      ],
      "stateMutability": "view",
      "type": "function",
      "constant": true
    },
    {
      "inputs": [],
      "name": "withdraw",
      "outputs": [],
      "stateMutability": "nonpayable",
      "type": "function"
    },
    {
      "inputs": [
        {
          "internalType": "uint256",
          "name": "itemId",
          "type": "uint256"
        }
      ],
      "name": "deleteItem",
      "outputs": [],
      "stateMutability": "nonpayable",
      "type": "function"
    },
    {
      "inputs": [
        {
          "internalType": "address",
          "name": "user",
          "type": "address"
        }
      ],
      "name": "getOrderIds",
      "outputs": [
        {
          "internalType": "uint256[]",
          "name": "",
          "type": "uint256[]"
        }
      ],
      "stateMutability": "view",
      "type": "function",
      "constant": true
    }
  ],
  "bytecode": "0x60806040526001805534801561001457600080fd5b50336000806101000a81548173ffffffffffffffffffffffffffffffffffffffff021916908373ffffffffffffffffffffffffffffffffffffffff1602179055506001600560008060009054906101000a900473ffffffffffffffffffffffffffffffffffffffff1673ffffffffffffffffffffffffffffffffffffffff1673ffffffffffffffffffffffffffffffffffffffff16815260200190815260200160002060006101000a81548160ff021916908315150217905550612d39806100dd6000396000f3fe6080604052600436106100f35760003560e01c8063bfb231d21161008a578063ee95feaf11610059578063ee95feaf14610322578063f17cfe4e1461035f578063fcfb88ca146103a0578063ff22fb00146103c9576100f3565b8063bfb231d21461025a578063d6febde8146102a0578063d93fabfa146102bc578063e5e24bb7146102e5576100f3565b8063793b8c6d116100c6578063793b8c6d1461018c5780637cb9cf54146101c95780638da5cb5b146101f2578063ba01a8f71461021d576100f3565b806311e93b8d146100f85780633ccfd60b14610121578063654fc833146101385780636bfb0d0114610161575b600080fd5b34801561010457600080fd5b5061011f600480360381019061011a9190611e9c565b610408565b005b34801561012d57600080fd5b5061013661068b565b005b34801561014457600080fd5b5061015f600480360381019061015a9190611fc6565b6107cb565b005b34801561016d57600080fd5b50610176610a30565b6040516101839190612841565b60405180910390f35b34801561019857600080fd5b506101b360048036038101906101ae9190611d71565b610a36565b6040516101c09190612841565b60405180910390f35b3480156101d557600080fd5b506101f060048036038101906101eb9190611d48565b610a67565b005b3480156101fe57600080fd5b50610207610b93565b604051610214919061255e565b60405180910390f35b34801561022957600080fd5b50610244600480360381019061023f9190611d48565b610bb7565b604051610251919061281f565b60405180910390f35b34801561026657600080fd5b50610281600480360381019061027c9190611fc6565b610eea565b6040516102979a99989796959493929190612885565b60405180910390f35b6102ba60048036038101906102b59190611fef565b611206565b005b3480156102c857600080fd5b506102e360048036038101906102de9190611d48565b611562565b005b3480156102f157600080fd5b5061030c60048036038101906103079190611d48565b61168e565b6040516103199190612579565b60405180910390f35b34801561032e57600080fd5b5061034960048036038101906103449190611d48565b611725565b604051610356919061259b565b60405180910390f35b34801561036b57600080fd5b5061038660048036038101906103819190611d48565b611745565b6040516103979594939291906125b6565b60405180910390f35b3480156103ac57600080fd5b506103c760048036038101906103c29190611dad565b611a23565b005b3480156103d557600080fd5b506103f060048036038101906103eb9190611fc6565b611b7a565b6040516103ff93929190612944565b60405180910390f35b600560003373ffffffffffffffffffffffffffffffffffffffff1673ffffffffffffffffffffffffffffffffffffffff16815260200190815260200160002060009054906101000a900460ff16610494576040517f08c379a000000000000000000000000000000000000000000000000000000000815260040161048b9061279f565b60405180910390fd5b60405180610140016040528060015481526020018981526020018881526020018781526020018681526020018581526020013373ffffffffffffffffffffffffffffffffffffffff1681526020018481526020018381526020018281525060036000600154815260200190815260200160002060008201518160000155602082015181600101908051906020019061052d929190611ba4565b50604082015181600201908051906020019061054a929190611ba4565b506060820151816003019080519060200190610567929190611ba4565b506080820151816004015560a0820151816005015560c08201518160060160006101000a81548173ffffffffffffffffffffffffffffffffffffffff021916908373ffffffffffffffffffffffffffffffffffffffff16021790555060e08201518160070190805190602001906105df929190611ba4565b506101008201518160080190805190602001906105fd929190611ba4565b5061012082015181600901559050503373ffffffffffffffffffffffffffffffffffffffff166001547f11ff6d79e73ca42d7cbd99f11d30cfeefd1e106c48e9d1350708991f640a32db8a898989898989604051610661979695949392919061262c565b60405180910390a36001600081548092919061067c90612bb3565b91905055505050505050505050565b60008054906101000a900473ffffffffffffffffffffffffffffffffffffffff1673ffffffffffffffffffffffffffffffffffffffff163373ffffffffffffffffffffffffffffffffffffffff1614610719576040517f08c379a0000000000000000000000000000000000000000000000000000000008152600401610710906127bf565b60405180910390fd5b600047905060008111610761576040517f08c379a00000000000000000000000000000000000000000000000000000000081526004016107589061273f565b60405180910390fd5b60008054906101000a900473ffffffffffffffffffffffffffffffffffffffff1673ffffffffffffffffffffffffffffffffffffffff166108fc829081150290604051600060405180830381858888f193505050501580156107c7573d6000803e3d6000fd5b5050565b60008054906101000a900473ffffffffffffffffffffffffffffffffffffffff1673ffffffffffffffffffffffffffffffffffffffff163373ffffffffffffffffffffffffffffffffffffffff1614610859576040517f08c379a0000000000000000000000000000000000000000000000000000000008152600401610850906127bf565b60405180910390fd5b3373ffffffffffffffffffffffffffffffffffffffff166003600083815260200190815260200160002060060160009054906101000a900473ffffffffffffffffffffffffffffffffffffffff1673ffffffffffffffffffffffffffffffffffffffff161480610914575060008054906101000a900473ffffffffffffffffffffffffffffffffffffffff1673ffffffffffffffffffffffffffffffffffffffff163373ffffffffffffffffffffffffffffffffffffffff16145b610953576040517f08c379a000000000000000000000000000000000000000000000000000000000815260040161094a9061277f565b60405180910390fd5b6003600082815260200190815260200160002060008082016000905560018201600061097f9190611c2a565b60028201600061098f9190611c2a565b60038201600061099f9190611c2a565b600482016000905560058201600090556006820160006101000a81549073ffffffffffffffffffffffffffffffffffffffff02191690556007820160006109e69190611c2a565b6008820160006109f69190611c2a565b60098201600090555050807f3d0be3a3bbdb36b253d40a546d15d6b7f402fc43e4cd4a067af359b0763b6f3c60405160405180910390a250565b60015481565b60026020528160005260406000208181548110610a5257600080fd5b90600052602060002001600091509150505481565b60008054906101000a900473ffffffffffffffffffffffffffffffffffffffff1673ffffffffffffffffffffffffffffffffffffffff163373ffffffffffffffffffffffffffffffffffffffff1614610af5576040517f08c379a0000000000000000000000000000000000000000000000000000000008152600401610aec906127bf565b60405180910390fd5b6000600560008373ffffffffffffffffffffffffffffffffffffffff1673ffffffffffffffffffffffffffffffffffffffff16815260200190815260200160002060006101000a81548160ff0219169083151502179055508073ffffffffffffffffffffffffffffffffffffffff167fa6f3b3030df964d974376ba4db21cbe49207bd79998f0d619c1c3a422259707f60405160405180910390a250565b60008054906101000a900473ffffffffffffffffffffffffffffffffffffffff1681565b610bbf611c6a565b600660008373ffffffffffffffffffffffffffffffffffffffff1673ffffffffffffffffffffffffffffffffffffffff1681526020019081526020016000206040518060a0016040529081600082018054610c1990612b81565b80601f0160208091040260200160405190810160405280929190818152602001828054610c4590612b81565b8015610c925780601f10610c6757610100808354040283529160200191610c92565b820191906000526020600020905b815481529060010190602001808311610c7557829003601f168201915b50505050508152602001600182018054610cab90612b81565b80601f0160208091040260200160405190810160405280929190818152602001828054610cd790612b81565b8015610d245780601f10610cf957610100808354040283529160200191610d24565b820191906000526020600020905b815481529060010190602001808311610d0757829003601f168201915b50505050508152602001600282018054610d3d90612b81565b80601f0160208091040260200160405190810160405280929190818152602001828054610d6990612b81565b8015610db65780601f10610d8b57610100808354040283529160200191610db6565b820191906000526020600020905b815481529060010190602001808311610d9957829003601f168201915b50505050508152602001600382018054610dcf90612b81565b80601f0160208091040260200160405190810160405280929190818152602001828054610dfb90612b81565b8015610e485780601f10610e1d57610100808354040283529160200191610e48565b820191906000526020600020905b815481529060010190602001808311610e2b57829003601f168201915b50505050508152602001600482018054610e6190612b81565b80601f0160208091040260200160405190810160405280929190818152602001828054610e8d90612b81565b8015610eda5780601f10610eaf57610100808354040283529160200191610eda565b820191906000526020600020905b815481529060010190602001808311610ebd57829003601f168201915b5050505050815250509050919050565b6003602052806000526040600020600091509050806000015490806001018054610f1390612b81565b80601f0160208091040260200160405190810160405280929190818152602001828054610f3f90612b81565b8015610f8c5780601f10610f6157610100808354040283529160200191610f8c565b820191906000526020600020905b815481529060010190602001808311610f6f57829003601f168201915b505050505090806002018054610fa190612b81565b80601f0160208091040260200160405190810160405280929190818152602001828054610fcd90612b81565b801561101a5780601f10610fef5761010080835404028352916020019161101a565b820191906000526020600020905b815481529060010190602001808311610ffd57829003601f168201915b50505050509080600301805461102f90612b81565b80601f016020809104026020016040519081016040528092919081815260200182805461105b90612b81565b80156110a85780601f1061107d576101008083540402835291602001916110a8565b820191906000526020600020905b81548152906001019060200180831161108b57829003601f168201915b5050505050908060040154908060050154908060060160009054906101000a900473ffffffffffffffffffffffffffffffffffffffff16908060070180546110ef90612b81565b80601f016020809104026020016040519081016040528092919081815260200182805461111b90612b81565b80156111685780601f1061113d57610100808354040283529160200191611168565b820191906000526020600020905b81548152906001019060200180831161114b57829003601f168201915b50505050509080600801805461117d90612b81565b80601f01602080910402602001604051908101604052809291908181526020018280546111a990612b81565b80156111f65780601f106111cb576101008083540402835291602001916111f6565b820191906000526020600020905b8154815290600101906020018083116111d957829003601f168201915b505050505090806009015490508a565b600154821080156112175750600082115b611256576040517f08c379a000000000000000000000000000000000000000000000000000000000815260040161124d906127df565b60405180910390fd5b60008111611299576040517f08c379a00000000000000000000000000000000000000000000000000000000081526004016112909061271f565b60405180910390fd5b600060036000848152602001908152602001600020905060008282600401546112c29190612a57565b905080341015611307576040517f08c379a00000000000000000000000000000000000000000000000000000000081526004016112fe906127ff565b60405180910390fd5b828260050154101561134e576040517f08c379a00000000000000000000000000000000000000000000000000000000081526004016113459061275f565b60405180910390fd5b828260050160008282546113629190612ab1565b925050819055506000423386866040516020016113829493929190612510565b6040516020818303038152906040528051906020012060001c9050600260003373ffffffffffffffffffffffffffffffffffffffff1673ffffffffffffffffffffffffffffffffffffffff168152602001908152602001600020819080600181540180825580915050600190039060005260206000200160009091909190915055604051806060016040528082815260200186815260200185815250600460008381526020019081526020016000206000820151816000015560208201518160010155604082015181600201559050507f4ceaea0569072c9203c8c195ffccdbca9851b9d0410f577878a6792f12ec9b52813360405161148392919061285c565b60405180910390a13373ffffffffffffffffffffffffffffffffffffffff1685827f731365d34f37e2498a7f2fc7d75d55c18e620b04db22a7323c770a181296078686600101876002018860030189600401548b6040516114e89594939291906126b7565b60405180910390a48260060160009054906101000a900473ffffffffffffffffffffffffffffffffffffffff1673ffffffffffffffffffffffffffffffffffffffff166108fc349081150290604051600060405180830381858888f1935050505015801561155a573d6000803e3d6000fd5b505050505050565b60008054906101000a900473ffffffffffffffffffffffffffffffffffffffff1673ffffffffffffffffffffffffffffffffffffffff163373ffffffffffffffffffffffffffffffffffffffff16146115f0576040517f08c379a00000000000000000000000000000000000000000000000000000000081526004016115e7906127bf565b60405180910390fd5b6001600560008373ffffffffffffffffffffffffffffffffffffffff1673ffffffffffffffffffffffffffffffffffffffff16815260200190815260200160002060006101000a81548160ff0219169083151502179055508073ffffffffffffffffffffffffffffffffffffffff167f3d78526f2568d430fd8e20719601f7bc3f979936f8880236cc284e8127251b4260405160405180910390a250565b6060600260008373ffffffffffffffffffffffffffffffffffffffff1673ffffffffffffffffffffffffffffffffffffffff16815260200190815260200160002080548060200260200160405190810160405280929190818152602001828054801561171957602002820191906000526020600020905b815481526020019060010190808311611705575b50505050509050919050565b60056020528060005260406000206000915054906101000a900460ff1681565b600660205280600052604060002060009150905080600001805461176890612b81565b80601f016020809104026020016040519081016040528092919081815260200182805461179490612b81565b80156117e15780601f106117b6576101008083540402835291602001916117e1565b820191906000526020600020905b8154815290600101906020018083116117c457829003601f168201915b5050505050908060010180546117f690612b81565b80601f016020809104026020016040519081016040528092919081815260200182805461182290612b81565b801561186f5780601f106118445761010080835404028352916020019161186f565b820191906000526020600020905b81548152906001019060200180831161185257829003601f168201915b50505050509080600201805461188490612b81565b80601f01602080910402602001604051908101604052809291908181526020018280546118b090612b81565b80156118fd5780601f106118d2576101008083540402835291602001916118fd565b820191906000526020600020905b8154815290600101906020018083116118e057829003601f168201915b50505050509080600301805461191290612b81565b80601f016020809104026020016040519081016040528092919081815260200182805461193e90612b81565b801561198b5780601f106119605761010080835404028352916020019161198b565b820191906000526020600020905b81548152906001019060200180831161196e57829003601f168201915b5050505050908060040180546119a090612b81565b80601f01602080910402602001604051908101604052809291908181526020018280546119cc90612b81565b8015611a195780601f106119ee57610100808354040283529160200191611a19565b820191906000526020600020905b8154815290600101906020018083116119fc57829003601f168201915b5050505050905085565b6040518060a0016040528086815260200185815260200184815260200183815260200182815250600660003373ffffffffffffffffffffffffffffffffffffffff1673ffffffffffffffffffffffffffffffffffffffff1681526020019081526020016000206000820151816000019080519060200190611aa5929190611ba4565b506020820151816001019080519060200190611ac2929190611ba4565b506040820151816002019080519060200190611adf929190611ba4565b506060820151816003019080519060200190611afc929190611ba4565b506080820151816004019080519060200190611b19929190611ba4565b509050503373ffffffffffffffffffffffffffffffffffffffff167fbc776c400a9deb1fbcc5526fb3febaae01f0993971a2822617569a73659a940a8686868686604051611b6b9594939291906125b6565b60405180910390a25050505050565b60046020528060005260406000206000915090508060000154908060010154908060020154905083565b828054611bb090612b81565b90600052602060002090601f016020900481019282611bd25760008555611c19565b82601f10611beb57805160ff1916838001178555611c19565b82800160010185558215611c19579182015b82811115611c18578251825591602001919060010190611bfd565b5b509050611c269190611c99565b5090565b508054611c3690612b81565b6000825580601f10611c485750611c67565b601f016020900490600052602060002090810190611c669190611c99565b5b50565b6040518060a0016040528060608152602001606081526020016060815260200160608152602001606081525090565b5b80821115611cb2576000816000905550600101611c9a565b5090565b6000611cc9611cc4846129ac565b61297b565b905082815260208101848484011115611ce157600080fd5b611cec848285612b3f565b509392505050565b600081359050611d0381612cd5565b92915050565b600082601f830112611d1a57600080fd5b8135611d2a848260208601611cb6565b91505092915050565b600081359050611d4281612cec565b92915050565b600060208284031215611d5a57600080fd5b6000611d6884828501611cf4565b91505092915050565b60008060408385031215611d8457600080fd5b6000611d9285828601611cf4565b9250506020611da385828601611d33565b9150509250929050565b600080600080600060a08688031215611dc557600080fd5b600086013567ffffffffffffffff811115611ddf57600080fd5b611deb88828901611d09565b955050602086013567ffffffffffffffff811115611e0857600080fd5b611e1488828901611d09565b945050604086013567ffffffffffffffff811115611e3157600080fd5b611e3d88828901611d09565b935050606086013567ffffffffffffffff811115611e5a57600080fd5b611e6688828901611d09565b925050608086013567ffffffffffffffff811115611e8357600080fd5b611e8f88828901611d09565b9150509295509295909350565b600080600080600080600080610100898b031215611eb957600080fd5b600089013567ffffffffffffffff811115611ed357600080fd5b611edf8b828c01611d09565b985050602089013567ffffffffffffffff811115611efc57600080fd5b611f088b828c01611d09565b975050604089013567ffffffffffffffff811115611f2557600080fd5b611f318b828c01611d09565b9650506060611f428b828c01611d33565b9550506080611f538b828c01611d33565b94505060a089013567ffffffffffffffff811115611f7057600080fd5b611f7c8b828c01611d09565b93505060c089013567ffffffffffffffff811115611f9957600080fd5b611fa58b828c01611d09565b92505060e0611fb68b828c01611d33565b9150509295985092959890939650565b600060208284031215611fd857600080fd5b6000611fe684828501611d33565b91505092915050565b6000806040838503121561200257600080fd5b600061201085828601611d33565b925050602061202185828601611d33565b9150509250929050565b600061203783836124db565b60208301905092915050565b61204c81612af7565b82525050565b61205b81612ae5565b82525050565b61207261206d82612ae5565b612bfc565b82525050565b600061208382612a01565b61208d8185612a24565b9350612098836129dc565b8060005b838110156120c95781516120b0888261202b565b97506120bb83612a17565b92505060018101905061209c565b5085935050505092915050565b6120df81612b09565b82525050565b60006120f082612a0c565b6120fa8185612a35565b935061210a818560208601612b4e565b61211381612cb7565b840191505092915050565b600061212982612a0c565b6121338185612a46565b9350612143818560208601612b4e565b61214c81612cb7565b840191505092915050565b6000815461216481612b81565b61216e8186612a46565b94506001821660008114612189576001811461219b576121ce565b60ff19831686526020860193506121ce565b6121a4856129ec565b60005b838110156121c6578154818901526001820191506020810190506121a7565b808801955050505b50505092915050565b60006121e4602383612a46565b91507f5175616e74697479206d7573742062652067726561746572207468616e207a6560008301527f726f2e00000000000000000000000000000000000000000000000000000000006020830152604082019050919050565b600061224a600d83612a46565b91507f42616c616e636520697320302e000000000000000000000000000000000000006000830152602082019050919050565b600061228a601a83612a46565b91507f4e6f7420656e6f756768206974656d7320696e2073746f636b2e0000000000006000830152602082019050919050565b60006122ca600d83612a46565b91507f556e617574686f72697a65642e000000000000000000000000000000000000006000830152602082019050919050565b600061230a602e83612a46565b91507f4f6e6c7920617070726f7665642073656c6c6572732063616e20706572666f7260008301527f6d207468697320616374696f6e2e0000000000000000000000000000000000006020830152604082019050919050565b6000612370602783612a46565b91507f4f6e6c7920746865206f776e65722063616e20706572666f726d20746869732060008301527f616374696f6e2e000000000000000000000000000000000000000000000000006020830152604082019050919050565b60006123d6601483612a46565b91507f4974656d20646f6573206e6f742065786973742e0000000000000000000000006000830152602082019050919050565b6000612416601683612a46565b91507f4e6f7420656e6f7567682065746865722073656e742e000000000000000000006000830152602082019050919050565b600060a083016000830151848203600086015261246682826120e5565b9150506020830151848203602086015261248082826120e5565b9150506040830151848203604086015261249a82826120e5565b915050606083015184820360608601526124b482826120e5565b915050608083015184820360808601526124ce82826120e5565b9150508091505092915050565b6124e481612b35565b82525050565b6124f381612b35565b82525050565b61250a61250582612b35565b612c20565b82525050565b600061251c82876124f9565b60208201915061252c8286612061565b60148201915061253c82856124f9565b60208201915061254c82846124f9565b60208201915081905095945050505050565b60006020820190506125736000830184612052565b92915050565b600060208201905081810360008301526125938184612078565b905092915050565b60006020820190506125b060008301846120d6565b92915050565b600060a08201905081810360008301526125d0818861211e565b905081810360208301526125e4818761211e565b905081810360408301526125f8818661211e565b9050818103606083015261260c818561211e565b90508181036080830152612620818461211e565b90509695505050505050565b600060e0820190508181036000830152612646818a61211e565b9050818103602083015261265a818961211e565b905061266960408301886124ea565b61267660608301876124ea565b8181036080830152612688818661211e565b905081810360a083015261269c818561211e565b90506126ab60c08301846124ea565b98975050505050505050565b600060a08201905081810360008301526126d18188612157565b905081810360208301526126e58187612157565b905081810360408301526126f98186612157565b905061270860608301856124ea565b61271560808301846124ea565b9695505050505050565b60006020820190508181036000830152612738816121d7565b9050919050565b600060208201905081810360008301526127588161223d565b9050919050565b600060208201905081810360008301526127788161227d565b9050919050565b60006020820190508181036000830152612798816122bd565b9050919050565b600060208201905081810360008301526127b8816122fd565b9050919050565b600060208201905081810360008301526127d881612363565b9050919050565b600060208201905081810360008301526127f8816123c9565b9050919050565b6000602082019050818103600083015261281881612409565b9050919050565b600060208201905081810360008301526128398184612449565b905092915050565b600060208201905061285660008301846124ea565b92915050565b600060408201905061287160008301856124ea565b61287e6020830184612052565b9392505050565b60006101408201905061289b600083018d6124ea565b81810360208301526128ad818c61211e565b905081810360408301526128c1818b61211e565b905081810360608301526128d5818a61211e565b90506128e460808301896124ea565b6128f160a08301886124ea565b6128fe60c0830187612043565b81810360e0830152612910818661211e565b9050818103610100830152612925818561211e565b90506129356101208301846124ea565b9b9a5050505050505050505050565b600060608201905061295960008301866124ea565b61296660208301856124ea565b61297360408301846124ea565b949350505050565b6000604051905081810181811067ffffffffffffffff821117156129a2576129a1612c88565b5b8060405250919050565b600067ffffffffffffffff8211156129c7576129c6612c88565b5b601f19601f8301169050602081019050919050565b6000819050602082019050919050565b60008190508160005260206000209050919050565b600081519050919050565b600081519050919050565b6000602082019050919050565b600082825260208201905092915050565b600082825260208201905092915050565b600082825260208201905092915050565b6000612a6282612b35565b9150612a6d83612b35565b9250817fffffffffffffffffffffffffffffffffffffffffffffffffffffffffffffffff0483118215151615612aa657612aa5612c2a565b5b828202905092915050565b6000612abc82612b35565b9150612ac783612b35565b925082821015612ada57612ad9612c2a565b5b828203905092915050565b6000612af082612b15565b9050919050565b6000612b0282612b15565b9050919050565b60008115159050919050565b600073ffffffffffffffffffffffffffffffffffffffff82169050919050565b6000819050919050565b82818337600083830152505050565b60005b83811015612b6c578082015181840152602081019050612b51565b83811115612b7b576000848401525b50505050565b60006002820490506001821680612b9957607f821691505b60208210811415612bad57612bac612c59565b5b50919050565b6000612bbe82612b35565b91507fffffffffffffffffffffffffffffffffffffffffffffffffffffffffffffffff821415612bf157612bf0612c2a565b5b600182019050919050565b6000612c0782612c0e565b9050919050565b6000612c1982612cc8565b9050919050565b6000819050919050565b7f4e487b7100000000000000000000000000000000000000000000000000000000600052601160045260246000fd5b7f4e487b7100000000000000000000000000000000000000000000000000000000600052602260045260246000fd5b7f4e487b7100000000000000000000000000000000000000000000000000000000600052604160045260246000fd5b6000601f19601f8301169050919050565b60008160601b9050919050565b612cde81612ae5565b8114612ce957600080fd5b50565b612cf581612b35565b8114612d0057600080fd5b5056fea26469706673582212206f312fd6b17087d8179eeb1f21abecec1de7a6843a8c977a5325eb3557707fc664736f6c63430008000033",
  "immutableReferences": {},
  "source": "// SPDX-License-Identifier: UNLICENSED\r\npragma solidity ^0.8.0;\r\n\r\ncontract Amazon {\r\n    address public owner;\r\n    uint256 public itemCount = 1;\r\n\r\n    struct Item {\r\n        uint256 id;\r\n        string name;\r\n        string category;\r\n        string imageUrl;\r\n        uint256 cost;\r\n        uint256 stock;\r\n        address payable seller;\r\n        string manufacturer;\r\n        string dimensions;\r\n        uint256 weight;\r\n    }\r\n\r\n    struct Order {\r\n        uint256 orderId;\r\n        uint256 itemId;\r\n        uint256 quantity;\r\n    }\r\n\r\n    struct ShippingInfo {\r\n        string name;\r\n        string street;\r\n        string city;\r\n        string postalCode;\r\n        string country;\r\n    }\r\n\r\n    mapping(address => uint256[]) public orders;\r\n    mapping(uint256 => Item) public items;\r\n    mapping(uint256 => Order) public orderDetails;\r\n    mapping(address => bool) public isSeller;\r\n    mapping(address => ShippingInfo) public shippingInfo;\r\n\r\n    event ItemListed(uint256 indexed itemId, string name, string imageUrl, uint256 cost, uint256 stock, address indexed seller, string manufacturer, string dimensions, uint256 weight);\r\n    event ItemPurchased(uint256 indexed orderId, uint256 indexed itemId, string itemName, string itemCategory, string itemImageUrl, uint256 itemCost, uint256 quantity, address indexed buyer);\r\n    event ShippingInfoUpdated(string name, string street, string city, string postalCode, string country, address indexed user);\r\n    event ItemDeleted(uint256 indexed itemId);\r\n    event SellerAdded(address indexed seller);\r\n    event SellerRemoved(address indexed seller);\r\n    event OrderCreated(uint256 orderId, address buyer);\r\n\r\n    constructor() {\r\n        owner = msg.sender;\r\n        isSeller[owner] = true;\r\n    }\r\n\r\n    modifier onlyOwner() {\r\n        require(msg.sender == owner, \"Only the owner can perform this action.\");\r\n        _;\r\n    }\r\n\r\n    modifier onlySeller() {\r\n        require(isSeller[msg.sender], \"Only approved sellers can perform this action.\");\r\n        _;\r\n    }\r\n\r\n    function addSeller(address _seller) public onlyOwner {\r\n        isSeller[_seller] = true;\r\n        emit SellerAdded(_seller);\r\n    }\r\n\r\n    function removeSeller(address _seller) public onlyOwner {\r\n        isSeller[_seller] = false;\r\n        emit SellerRemoved(_seller);\r\n    }\r\n\r\n    function list(string memory _name, string memory _category, string memory _imageUrl, uint256 _costWei, uint256 _stock, string memory _manufacturer, string memory _dimensions, uint256 _weight) public onlySeller {\r\n        items[itemCount] = Item(itemCount, _name, _category, _imageUrl, _costWei, _stock, payable(msg.sender), _manufacturer, _dimensions, _weight);\r\n        emit ItemListed(itemCount, _name, _imageUrl, _costWei, _stock, msg.sender, _manufacturer, _dimensions, _weight);\r\n        itemCount++;\r\n    }\r\n\r\n    function buy(uint256 _itemId, uint256 _quantity) public payable {\r\n        require(_itemId < itemCount && _itemId > 0, \"Item does not exist.\");\r\n        require(_quantity > 0, \"Quantity must be greater than zero.\");\r\n        Item storage item = items[_itemId];\r\n        uint256 totalCost = item.cost * _quantity;\r\n        require(msg.value >= totalCost, \"Not enough ether sent.\");\r\n        require(item.stock >= _quantity, \"Not enough items in stock.\");\r\n        item.stock -= _quantity;\r\n        \r\n        uint256 orderId = uint256(keccak256(abi.encodePacked(block.timestamp, msg.sender, _itemId, _quantity)));\r\n        orders[msg.sender].push(orderId);\r\n        orderDetails[orderId] = Order(orderId, _itemId, _quantity);\r\n\r\n        emit OrderCreated(orderId, msg.sender);  // Emit the order creation event\r\n        emit ItemPurchased(orderId, _itemId, item.name, item.category, item.imageUrl, item.cost, _quantity, msg.sender);  // Emit more details with the purchase event\r\n        \r\n        item.seller.transfer(msg.value);\r\n    }\r\n\r\n    function setShippingInfo(string memory _name, string memory _street, string memory _city, string memory _postalCode, string memory _country) public {\r\n        shippingInfo[msg.sender] = ShippingInfo(_name, _street, _city, _postalCode, _country);\r\n        emit ShippingInfoUpdated(_name, _street, _city, _postalCode, _country, msg.sender);\r\n    }\r\n\r\n    function getShippingInfo(address _user) public view returns (ShippingInfo memory) {\r\n        return shippingInfo[_user];\r\n    }\r\n\r\n    function withdraw() public onlyOwner {\r\n        uint256 balance = address(this).balance;\r\n        require(balance > 0, \"Balance is 0.\");\r\n        payable(owner).transfer(balance);\r\n    }\r\n\r\n    function deleteItem(uint256 itemId) public onlyOwner {\r\n        require(items[itemId].seller == msg.sender || msg.sender == owner, \"Unauthorized.\");\r\n        delete items[itemId];\r\n        emit ItemDeleted(itemId);\r\n    }\r\n\r\n    function getOrderIds(address user) public view returns (uint256[] memory) {\r\n        return orders[user];\r\n    }\r\n}\r\n",
  "sourcePath": "C:\\Users\\marti\\Documents\\projects\\blockchain-amazon\\contracts\\Amazon.sol",
  "compiler": {
    "name": "solc",
    "version": "0.8.0+commit.c7dfd78e.Emscripten.clang"
  },
  "schemaVersion": "3.4.16",
  "updatedAt": "2024-05-15T09:37:49.740Z",
  "networkType": "ethereum",
  "devdoc": {
    "kind": "dev",
    "methods": {},
    "version": 1
  },
  "userdoc": {
    "kind": "user",
    "methods": {},
    "version": 1
  }
}